{
  "abi": [
    {
      "inputs": [
        {
          "internalType": "address",
          "name": "_asset",
          "type": "address"
        },
        {
          "internalType": "string",
          "name": "_name",
          "type": "string"
        },
        {
          "internalType": "string",
          "name": "_symbol",
          "type": "string"
        },
        {
          "internalType": "uint256",
          "name": "_tvlCap",
          "type": "uint256"
        },
        {
          "internalType": "address[]",
          "name": "_strategists",
          "type": "address[]"
        },
        {
          "internalType": "address[]",
          "name": "_multisigRoles",
          "type": "address[]"
        }
      ],
      "stateMutability": "nonpayable",
      "type": "constructor"
    },
    {
      "anonymous": false,
      "inputs": [
        {
          "indexed": true,
          "internalType": "address",
          "name": "owner",
          "type": "address"
        },
        {
          "indexed": true,
          "internalType": "address",
          "name": "spender",
          "type": "address"
        },
        {
          "indexed": false,
          "internalType": "uint256",
          "name": "value",
          "type": "uint256"
        }
      ],
      "name": "Approval",
      "type": "event"
    },
    {
      "anonymous": false,
      "inputs": [
        {
          "indexed": true,
          "internalType": "address",
          "name": "caller",
          "type": "address"
        },
        {
          "indexed": true,
          "internalType": "address",
          "name": "owner",
          "type": "address"
        },
        {
          "indexed": false,
          "internalType": "uint256",
          "name": "assets",
          "type": "uint256"
        },
        {
          "indexed": false,
          "internalType": "uint256",
          "name": "shares",
          "type": "uint256"
        }
      ],
      "name": "Deposit",
      "type": "event"
    },
    {
      "anonymous": false,
      "inputs": [
        {
          "indexed": false,
          "internalType": "bool",
          "name": "active",
          "type": "bool"
        }
      ],
      "name": "EmergencyShutdown",
      "type": "event"
    },
    {
      "anonymous": false,
      "inputs": [
        {
          "indexed": false,
          "internalType": "address",
          "name": "token",
          "type": "address"
        },
        {
          "indexed": false,
          "internalType": "uint256",
          "name": "amount",
          "type": "uint256"
        }
      ],
      "name": "InCaseTokensGetStuckCalled",
      "type": "event"
    },
    {
      "anonymous": false,
      "inputs": [
        {
          "indexed": false,
          "internalType": "uint256",
          "name": "degradation",
          "type": "uint256"
        }
      ],
      "name": "LockedProfitDegradationUpdated",
      "type": "event"
    },
    {
      "anonymous": false,
      "inputs": [
        {
          "indexed": true,
          "internalType": "bytes32",
          "name": "role",
          "type": "bytes32"
        },
        {
          "indexed": true,
          "internalType": "bytes32",
          "name": "previousAdminRole",
          "type": "bytes32"
        },
        {
          "indexed": true,
          "internalType": "bytes32",
          "name": "newAdminRole",
          "type": "bytes32"
        }
      ],
      "name": "RoleAdminChanged",
      "type": "event"
    },
    {
      "anonymous": false,
      "inputs": [
        {
          "indexed": true,
          "internalType": "bytes32",
          "name": "role",
          "type": "bytes32"
        },
        {
          "indexed": true,
          "internalType": "address",
          "name": "account",
          "type": "address"
        },
        {
          "indexed": true,
          "internalType": "address",
          "name": "sender",
          "type": "address"
        }
      ],
      "name": "RoleGranted",
      "type": "event"
    },
    {
      "anonymous": false,
      "inputs": [
        {
          "indexed": true,
          "internalType": "bytes32",
          "name": "role",
          "type": "bytes32"
        },
        {
          "indexed": true,
          "internalType": "address",
          "name": "account",
          "type": "address"
        },
        {
          "indexed": true,
          "internalType": "address",
          "name": "sender",
          "type": "address"
        }
      ],
      "name": "RoleRevoked",
      "type": "event"
    },
    {
      "anonymous": false,
      "inputs": [
        {
          "indexed": true,
          "internalType": "address",
          "name": "strategy",
          "type": "address"
        },
        {
          "indexed": false,
          "internalType": "uint256",
          "name": "allocBPS",
          "type": "uint256"
        }
      ],
      "name": "StrategyAdded",
      "type": "event"
    },
    {
      "anonymous": false,
      "inputs": [
        {
          "indexed": true,
          "internalType": "address",
          "name": "strategy",
          "type": "address"
        },
        {
          "indexed": false,
          "internalType": "uint256",
          "name": "allocBPS",
          "type": "uint256"
        }
      ],
      "name": "StrategyAllocBPSUpdated",
      "type": "event"
    },
    {
      "anonymous": false,
      "inputs": [
        {
          "indexed": true,
          "internalType": "address",
          "name": "strategy",
          "type": "address"
        },
        {
          "indexed": false,
          "internalType": "int256",
          "name": "roi",
          "type": "int256"
        },
        {
          "indexed": false,
          "internalType": "uint256",
          "name": "repayment",
          "type": "uint256"
        },
        {
          "indexed": false,
          "internalType": "uint256",
          "name": "gains",
          "type": "uint256"
        },
        {
          "indexed": false,
          "internalType": "uint256",
          "name": "losses",
          "type": "uint256"
        },
        {
          "indexed": false,
          "internalType": "uint256",
          "name": "allocated",
          "type": "uint256"
        },
        {
          "indexed": false,
          "internalType": "uint256",
          "name": "allocBPS",
          "type": "uint256"
        }
      ],
      "name": "StrategyReported",
      "type": "event"
    },
    {
      "anonymous": false,
      "inputs": [
        {
          "indexed": true,
          "internalType": "address",
          "name": "strategy",
          "type": "address"
        }
      ],
      "name": "StrategyRevoked",
      "type": "event"
    },
    {
      "anonymous": false,
      "inputs": [
        {
          "indexed": true,
          "internalType": "address",
          "name": "from",
          "type": "address"
        },
        {
          "indexed": true,
          "internalType": "address",
          "name": "to",
          "type": "address"
        },
        {
          "indexed": false,
          "internalType": "uint256",
          "name": "value",
          "type": "uint256"
        }
      ],
      "name": "Transfer",
      "type": "event"
    },
    {
      "anonymous": false,
      "inputs": [
        {
          "indexed": false,
          "internalType": "uint256",
          "name": "newTvlCap",
          "type": "uint256"
        }
      ],
      "name": "TvlCapUpdated",
      "type": "event"
    },
    {
      "anonymous": false,
      "inputs": [
        {
          "indexed": false,
          "internalType": "address[]",
          "name": "withdrawalQueue",
          "type": "address[]"
        }
      ],
      "name": "UpdateWithdrawalQueue",
      "type": "event"
    },
    {
      "anonymous": false,
      "inputs": [
        {
          "indexed": true,
          "internalType": "address",
          "name": "caller",
          "type": "address"
        },
        {
          "indexed": true,
          "internalType": "address",
          "name": "receiver",
          "type": "address"
        },
        {
          "indexed": true,
          "internalType": "address",
          "name": "owner",
          "type": "address"
        },
        {
          "indexed": false,
          "internalType": "uint256",
          "name": "assets",
          "type": "uint256"
        },
        {
          "indexed": false,
          "internalType": "uint256",
          "name": "shares",
          "type": "uint256"
        }
      ],
      "name": "Withdraw",
      "type": "event"
    },
    {
      "anonymous": false,
      "inputs": [
        {
          "indexed": false,
          "internalType": "uint256",
          "name": "withdrawMaxLoss",
          "type": "uint256"
        }
      ],
      "name": "WithdrawMaxLossUpdated",
      "type": "event"
    },
    {
      "inputs": [],
      "name": "ADMIN",
      "outputs": [
        {
          "internalType": "bytes32",
          "name": "",
          "type": "bytes32"
        }
      ],
      "stateMutability": "view",
      "type": "function"
    },
    {
      "inputs": [],
      "name": "DEFAULT_ADMIN_ROLE",
      "outputs": [
        {
          "internalType": "bytes32",
          "name": "",
          "type": "bytes32"
        }
      ],
      "stateMutability": "view",
      "type": "function"
    },
    {
      "inputs": [],
      "name": "DEGRADATION_COEFFICIENT",
      "outputs": [
        {
          "internalType": "uint256",
          "name": "",
          "type": "uint256"
        }
      ],
      "stateMutability": "view",
      "type": "function"
    },
    {
      "inputs": [],
      "name": "GUARDIAN",
      "outputs": [
        {
          "internalType": "bytes32",
          "name": "",
          "type": "bytes32"
        }
      ],
      "stateMutability": "view",
      "type": "function"
    },
    {
      "inputs": [],
      "name": "PERCENT_DIVISOR",
      "outputs": [
        {
          "internalType": "uint256",
          "name": "",
          "type": "uint256"
        }
      ],
      "stateMutability": "view",
      "type": "function"
    },
    {
      "inputs": [],
      "name": "STRATEGIST",
      "outputs": [
        {
          "internalType": "bytes32",
          "name": "",
          "type": "bytes32"
        }
      ],
      "stateMutability": "view",
      "type": "function"
    },
    {
      "inputs": [
        {
          "internalType": "address",
          "name": "strategy",
          "type": "address"
        },
        {
          "internalType": "uint256",
          "name": "allocBPS",
          "type": "uint256"
        }
      ],
      "name": "addStrategy",
      "outputs": [],
      "stateMutability": "nonpayable",
      "type": "function"
    },
    {
      "inputs": [
        {
          "internalType": "address",
          "name": "owner",
          "type": "address"
        },
        {
          "internalType": "address",
          "name": "spender",
          "type": "address"
        }
      ],
      "name": "allowance",
      "outputs": [
        {
          "internalType": "uint256",
          "name": "",
          "type": "uint256"
        }
      ],
      "stateMutability": "view",
      "type": "function"
    },
    {
      "inputs": [
        {
          "internalType": "address",
          "name": "spender",
          "type": "address"
        },
        {
          "internalType": "uint256",
          "name": "amount",
          "type": "uint256"
        }
      ],
      "name": "approve",
      "outputs": [
        {
          "internalType": "bool",
          "name": "",
          "type": "bool"
        }
      ],
      "stateMutability": "nonpayable",
      "type": "function"
    },
    {
      "inputs": [],
      "name": "asset",
      "outputs": [
        {
          "internalType": "address",
          "name": "",
          "type": "address"
        }
      ],
      "stateMutability": "view",
      "type": "function"
    },
    {
      "inputs": [],
      "name": "availableCapital",
      "outputs": [
        {
          "internalType": "int256",
          "name": "",
          "type": "int256"
        }
      ],
      "stateMutability": "view",
      "type": "function"
    },
    {
      "inputs": [
        {
          "internalType": "address",
          "name": "account",
          "type": "address"
        }
      ],
      "name": "balanceOf",
      "outputs": [
        {
          "internalType": "uint256",
          "name": "",
          "type": "uint256"
        }
      ],
      "stateMutability": "view",
      "type": "function"
    },
    {
      "inputs": [],
      "name": "constructionTime",
      "outputs": [
        {
          "internalType": "uint256",
          "name": "",
          "type": "uint256"
        }
      ],
      "stateMutability": "view",
      "type": "function"
    },
    {
      "inputs": [
        {
          "internalType": "uint256",
          "name": "shares",
          "type": "uint256"
        }
      ],
      "name": "convertToAssets",
      "outputs": [
        {
          "internalType": "uint256",
          "name": "",
          "type": "uint256"
        }
      ],
      "stateMutability": "view",
      "type": "function"
    },
    {
      "inputs": [
        {
          "internalType": "uint256",
          "name": "assets",
          "type": "uint256"
        }
      ],
      "name": "convertToShares",
      "outputs": [
        {
          "internalType": "uint256",
          "name": "",
          "type": "uint256"
        }
      ],
      "stateMutability": "view",
      "type": "function"
    },
    {
      "inputs": [],
      "name": "decimals",
      "outputs": [
        {
          "internalType": "uint8",
          "name": "",
          "type": "uint8"
        }
      ],
      "stateMutability": "view",
      "type": "function"
    },
    {
      "inputs": [
        {
          "internalType": "address",
          "name": "spender",
          "type": "address"
        },
        {
          "internalType": "uint256",
          "name": "subtractedValue",
          "type": "uint256"
        }
      ],
      "name": "decreaseAllowance",
      "outputs": [
        {
          "internalType": "bool",
          "name": "",
          "type": "bool"
        }
      ],
      "stateMutability": "nonpayable",
      "type": "function"
    },
    {
      "inputs": [
        {
          "internalType": "uint256",
          "name": "assets",
          "type": "uint256"
        },
        {
          "internalType": "address",
          "name": "receiver",
          "type": "address"
        }
      ],
      "name": "deposit",
      "outputs": [
        {
          "internalType": "uint256",
          "name": "shares",
          "type": "uint256"
        }
      ],
      "stateMutability": "nonpayable",
      "type": "function"
    },
    {
      "inputs": [],
      "name": "depositAll",
      "outputs": [],
      "stateMutability": "nonpayable",
      "type": "function"
    },
    {
      "inputs": [],
      "name": "emergencyShutdown",
      "outputs": [
        {
          "internalType": "bool",
          "name": "",
          "type": "bool"
        }
      ],
      "stateMutability": "view",
      "type": "function"
    },
    {
      "inputs": [],
      "name": "getPricePerFullShare",
      "outputs": [
        {
          "internalType": "uint256",
          "name": "",
          "type": "uint256"
        }
      ],
      "stateMutability": "view",
      "type": "function"
    },
    {
      "inputs": [
        {
          "internalType": "bytes32",
          "name": "role",
          "type": "bytes32"
        }
      ],
      "name": "getRoleAdmin",
      "outputs": [
        {
          "internalType": "bytes32",
          "name": "",
          "type": "bytes32"
        }
      ],
      "stateMutability": "view",
      "type": "function"
    },
    {
      "inputs": [
        {
          "internalType": "bytes32",
          "name": "role",
          "type": "bytes32"
        },
        {
          "internalType": "uint256",
          "name": "index",
          "type": "uint256"
        }
      ],
      "name": "getRoleMember",
      "outputs": [
        {
          "internalType": "address",
          "name": "",
          "type": "address"
        }
      ],
      "stateMutability": "view",
      "type": "function"
    },
    {
      "inputs": [
        {
          "internalType": "bytes32",
          "name": "role",
          "type": "bytes32"
        }
      ],
      "name": "getRoleMemberCount",
      "outputs": [
        {
          "internalType": "uint256",
          "name": "",
          "type": "uint256"
        }
      ],
      "stateMutability": "view",
      "type": "function"
    },
    {
      "inputs": [
        {
          "internalType": "bytes32",
          "name": "role",
          "type": "bytes32"
        },
        {
          "internalType": "address",
          "name": "account",
          "type": "address"
        }
      ],
      "name": "grantRole",
      "outputs": [],
      "stateMutability": "nonpayable",
      "type": "function"
    },
    {
      "inputs": [
        {
          "internalType": "bytes32",
          "name": "role",
          "type": "bytes32"
        },
        {
          "internalType": "address",
          "name": "account",
          "type": "address"
        }
      ],
      "name": "hasRole",
      "outputs": [
        {
          "internalType": "bool",
          "name": "",
          "type": "bool"
        }
      ],
      "stateMutability": "view",
      "type": "function"
    },
    {
      "inputs": [
        {
          "internalType": "address",
          "name": "token",
          "type": "address"
        }
      ],
      "name": "inCaseTokensGetStuck",
      "outputs": [],
      "stateMutability": "nonpayable",
      "type": "function"
    },
    {
      "inputs": [
        {
          "internalType": "address",
          "name": "spender",
          "type": "address"
        },
        {
          "internalType": "uint256",
          "name": "addedValue",
          "type": "uint256"
        }
      ],
      "name": "increaseAllowance",
      "outputs": [
        {
          "internalType": "bool",
          "name": "",
          "type": "bool"
        }
      ],
      "stateMutability": "nonpayable",
      "type": "function"
    },
    {
      "inputs": [],
      "name": "lastReport",
      "outputs": [
        {
          "internalType": "uint256",
          "name": "",
          "type": "uint256"
        }
      ],
      "stateMutability": "view",
      "type": "function"
    },
    {
      "inputs": [],
      "name": "lockedProfit",
      "outputs": [
        {
          "internalType": "uint256",
          "name": "",
          "type": "uint256"
        }
      ],
      "stateMutability": "view",
      "type": "function"
    },
    {
      "inputs": [],
      "name": "lockedProfitDegradation",
      "outputs": [
        {
          "internalType": "uint256",
          "name": "",
          "type": "uint256"
        }
      ],
      "stateMutability": "view",
      "type": "function"
    },
    {
      "inputs": [
        {
          "internalType": "address",
          "name": "receiver",
          "type": "address"
        }
      ],
      "name": "maxDeposit",
      "outputs": [
        {
          "internalType": "uint256",
          "name": "",
          "type": "uint256"
        }
      ],
      "stateMutability": "view",
      "type": "function"
    },
    {
      "inputs": [
        {
          "internalType": "address",
          "name": "receiver",
          "type": "address"
        }
      ],
      "name": "maxMint",
      "outputs": [
        {
          "internalType": "uint256",
          "name": "",
          "type": "uint256"
        }
      ],
      "stateMutability": "view",
      "type": "function"
    },
    {
      "inputs": [
        {
          "internalType": "address",
          "name": "owner",
          "type": "address"
        }
      ],
      "name": "maxRedeem",
      "outputs": [
        {
          "internalType": "uint256",
          "name": "",
          "type": "uint256"
        }
      ],
      "stateMutability": "view",
      "type": "function"
    },
    {
      "inputs": [
        {
          "internalType": "address",
          "name": "owner",
          "type": "address"
        }
      ],
      "name": "maxWithdraw",
      "outputs": [
        {
          "internalType": "uint256",
          "name": "",
          "type": "uint256"
        }
      ],
      "stateMutability": "view",
      "type": "function"
    },
    {
      "inputs": [
        {
          "internalType": "uint256",
          "name": "shares",
          "type": "uint256"
        },
        {
          "internalType": "address",
          "name": "receiver",
          "type": "address"
        }
      ],
      "name": "mint",
      "outputs": [
        {
          "internalType": "uint256",
          "name": "",
          "type": "uint256"
        }
      ],
      "stateMutability": "nonpayable",
      "type": "function"
    },
    {
      "inputs": [],
      "name": "name",
      "outputs": [
        {
          "internalType": "string",
          "name": "",
          "type": "string"
        }
      ],
      "stateMutability": "view",
      "type": "function"
    },
    {
      "inputs": [
        {
          "internalType": "uint256",
          "name": "assets",
          "type": "uint256"
        }
      ],
      "name": "previewDeposit",
      "outputs": [
        {
          "internalType": "uint256",
          "name": "",
          "type": "uint256"
        }
      ],
      "stateMutability": "view",
      "type": "function"
    },
    {
      "inputs": [
        {
          "internalType": "uint256",
          "name": "shares",
          "type": "uint256"
        }
      ],
      "name": "previewMint",
      "outputs": [
        {
          "internalType": "uint256",
          "name": "",
          "type": "uint256"
        }
      ],
      "stateMutability": "view",
      "type": "function"
    },
    {
      "inputs": [
        {
          "internalType": "uint256",
          "name": "shares",
          "type": "uint256"
        }
      ],
      "name": "previewRedeem",
      "outputs": [
        {
          "internalType": "uint256",
          "name": "",
          "type": "uint256"
        }
      ],
      "stateMutability": "view",
      "type": "function"
    },
    {
      "inputs": [
        {
          "internalType": "uint256",
          "name": "assets",
          "type": "uint256"
        }
      ],
      "name": "previewWithdraw",
      "outputs": [
        {
          "internalType": "uint256",
          "name": "",
          "type": "uint256"
        }
      ],
      "stateMutability": "view",
      "type": "function"
    },
    {
      "inputs": [
        {
          "internalType": "uint256",
          "name": "shares",
          "type": "uint256"
        },
        {
          "internalType": "address",
          "name": "receiver",
          "type": "address"
        },
        {
          "internalType": "address",
          "name": "owner",
          "type": "address"
        }
      ],
      "name": "redeem",
      "outputs": [
        {
          "internalType": "uint256",
          "name": "assets",
          "type": "uint256"
        }
      ],
      "stateMutability": "nonpayable",
      "type": "function"
    },
    {
      "inputs": [],
      "name": "redeemAll",
      "outputs": [],
      "stateMutability": "nonpayable",
      "type": "function"
    },
    {
      "inputs": [],
      "name": "removeTvlCap",
      "outputs": [],
      "stateMutability": "nonpayable",
      "type": "function"
    },
    {
      "inputs": [
        {
          "internalType": "bytes32",
          "name": "role",
          "type": "bytes32"
        },
        {
          "internalType": "address",
          "name": "account",
          "type": "address"
        }
      ],
      "name": "renounceRole",
      "outputs": [],
      "stateMutability": "nonpayable",
      "type": "function"
    },
    {
      "inputs": [
        {
          "internalType": "int256",
          "name": "roi",
          "type": "int256"
        },
        {
          "internalType": "uint256",
          "name": "repayment",
          "type": "uint256"
        }
      ],
      "name": "report",
      "outputs": [
        {
          "internalType": "uint256",
          "name": "",
          "type": "uint256"
        }
      ],
      "stateMutability": "nonpayable",
      "type": "function"
    },
    {
      "inputs": [
        {
          "internalType": "bytes32",
          "name": "role",
          "type": "bytes32"
        },
        {
          "internalType": "address",
          "name": "account",
          "type": "address"
        }
      ],
      "name": "revokeRole",
      "outputs": [],
      "stateMutability": "nonpayable",
      "type": "function"
    },
    {
      "inputs": [
        {
          "internalType": "address",
          "name": "strategy",
          "type": "address"
        }
      ],
      "name": "revokeStrategy",
      "outputs": [],
      "stateMutability": "nonpayable",
      "type": "function"
    },
    {
      "inputs": [
        {
          "internalType": "bool",
          "name": "active",
          "type": "bool"
        }
      ],
      "name": "setEmergencyShutdown",
      "outputs": [],
      "stateMutability": "nonpayable",
      "type": "function"
    },
    {
      "inputs": [
        {
          "internalType": "uint256",
          "name": "degradation",
          "type": "uint256"
        }
      ],
      "name": "setLockedProfitDegradation",
      "outputs": [],
      "stateMutability": "nonpayable",
      "type": "function"
    },
    {
      "inputs": [
        {
          "internalType": "address[]",
          "name": "_withdrawalQueue",
          "type": "address[]"
        }
      ],
      "name": "setWithdrawalQueue",
      "outputs": [],
      "stateMutability": "nonpayable",
      "type": "function"
    },
    {
      "inputs": [
        {
          "internalType": "address",
          "name": "",
          "type": "address"
        }
      ],
      "name": "strategies",
      "outputs": [
        {
          "internalType": "uint256",
          "name": "activation",
          "type": "uint256"
        },
        {
          "internalType": "uint256",
          "name": "allocBPS",
          "type": "uint256"
        },
        {
          "internalType": "uint256",
          "name": "allocated",
          "type": "uint256"
        },
        {
          "internalType": "uint256",
          "name": "gains",
          "type": "uint256"
        },
        {
          "internalType": "uint256",
          "name": "losses",
          "type": "uint256"
        },
        {
          "internalType": "uint256",
          "name": "lastReport",
          "type": "uint256"
        }
      ],
      "stateMutability": "view",
      "type": "function"
    },
    {
      "inputs": [
        {
          "internalType": "bytes4",
          "name": "interfaceId",
          "type": "bytes4"
        }
      ],
      "name": "supportsInterface",
      "outputs": [
        {
          "internalType": "bool",
          "name": "",
          "type": "bool"
        }
      ],
      "stateMutability": "view",
      "type": "function"
    },
    {
      "inputs": [],
      "name": "symbol",
      "outputs": [
        {
          "internalType": "string",
          "name": "",
          "type": "string"
        }
      ],
      "stateMutability": "view",
      "type": "function"
    },
    {
      "inputs": [],
      "name": "totalAllocBPS",
      "outputs": [
        {
          "internalType": "uint256",
          "name": "",
          "type": "uint256"
        }
      ],
      "stateMutability": "view",
      "type": "function"
    },
    {
      "inputs": [],
      "name": "totalAllocated",
      "outputs": [
        {
          "internalType": "uint256",
          "name": "",
          "type": "uint256"
        }
      ],
      "stateMutability": "view",
      "type": "function"
    },
    {
      "inputs": [],
      "name": "totalAssets",
      "outputs": [
        {
          "internalType": "uint256",
          "name": "",
          "type": "uint256"
        }
      ],
      "stateMutability": "view",
      "type": "function"
    },
    {
      "inputs": [],
      "name": "totalSupply",
      "outputs": [
        {
          "internalType": "uint256",
          "name": "",
          "type": "uint256"
        }
      ],
      "stateMutability": "view",
      "type": "function"
    },
    {
      "inputs": [
        {
          "internalType": "address",
          "name": "to",
          "type": "address"
        },
        {
          "internalType": "uint256",
          "name": "amount",
          "type": "uint256"
        }
      ],
      "name": "transfer",
      "outputs": [
        {
          "internalType": "bool",
          "name": "",
          "type": "bool"
        }
      ],
      "stateMutability": "nonpayable",
      "type": "function"
    },
    {
      "inputs": [
        {
          "internalType": "address",
          "name": "from",
          "type": "address"
        },
        {
          "internalType": "address",
          "name": "to",
          "type": "address"
        },
        {
          "internalType": "uint256",
          "name": "amount",
          "type": "uint256"
        }
      ],
      "name": "transferFrom",
      "outputs": [
        {
          "internalType": "bool",
          "name": "",
          "type": "bool"
        }
      ],
      "stateMutability": "nonpayable",
      "type": "function"
    },
    {
      "inputs": [],
      "name": "tvlCap",
      "outputs": [
        {
          "internalType": "uint256",
          "name": "",
          "type": "uint256"
        }
      ],
      "stateMutability": "view",
      "type": "function"
    },
    {
      "inputs": [
        {
          "internalType": "address",
          "name": "strategy",
          "type": "address"
        },
        {
          "internalType": "uint256",
          "name": "allocBPS",
          "type": "uint256"
        }
      ],
      "name": "updateStrategyAllocBPS",
      "outputs": [],
      "stateMutability": "nonpayable",
      "type": "function"
    },
    {
      "inputs": [
        {
          "internalType": "uint256",
          "name": "newTvlCap",
          "type": "uint256"
        }
      ],
      "name": "updateTvlCap",
      "outputs": [],
      "stateMutability": "nonpayable",
      "type": "function"
    },
    {
      "inputs": [
        {
          "internalType": "uint256",
          "name": "_withdrawMaxLoss",
          "type": "uint256"
        }
      ],
      "name": "updateWithdrawMaxLoss",
      "outputs": [],
      "stateMutability": "nonpayable",
      "type": "function"
    },
    {
      "inputs": [
        {
          "internalType": "uint256",
          "name": "assets",
          "type": "uint256"
        },
        {
          "internalType": "address",
          "name": "receiver",
          "type": "address"
        },
        {
          "internalType": "address",
          "name": "owner",
          "type": "address"
        }
      ],
      "name": "withdraw",
      "outputs": [
        {
          "internalType": "uint256",
          "name": "shares",
          "type": "uint256"
        }
      ],
      "stateMutability": "nonpayable",
      "type": "function"
    },
    {
      "inputs": [],
      "name": "withdrawMaxLoss",
      "outputs": [
        {
          "internalType": "uint256",
          "name": "",
          "type": "uint256"
        }
      ],
      "stateMutability": "view",
      "type": "function"
    },
    {
      "inputs": [
        {
          "internalType": "uint256",
          "name": "",
          "type": "uint256"
        }
      ],
      "name": "withdrawalQueue",
      "outputs": [
        {
          "internalType": "address",
          "name": "",
          "type": "address"
        }
      ],
      "stateMutability": "view",
      "type": "function"
    }
  ],
  "bytecode": {
    "object": "0x60a060405260016010553480156200001657600080fd5b506040516200491c3803806200491c8339810160408190526200003991620005dd565b845185908590620000529060039060208501906200036e565b508051620000689060049060208401906200036e565b50506001600555506001600160a01b03861660805242600e819055600d55600a839055620f4240620000a4670de0b6b3a7640000602e620006b2565b620000b09190620006e0565b60115560005b82518110156200010657620000fd600080516020620048fc833981519152848381518110620000e957620000e962000703565b60200260200101516200021460201b60201c565b600101620000b6565b506200011460003362000214565b620001326000801b82600081518110620000e957620000e962000703565b6200015c600080516020620048dc83398151915282600181518110620000e957620000e962000703565b620001977f8b5b16d04624687fcf0d0228f19993c9157c1ed07b41d8d430fd9100eb099fe882600281518110620000e957620000e962000703565b6040805160808101825260008152600080516020620048dc83398151915260208201527f8b5b16d04624687fcf0d0228f19993c9157c1ed07b41d8d430fd9100eb099fe891810191909152600080516020620048fc833981519152606082015262000207906013906004620003fd565b5050505050505062000756565b6200022b82826200025760201b620024631760201c565b600082815260076020908152604090912062000252918390620024e9620002fc821b17901c565b505050565b60008281526006602090815260408083206001600160a01b038516845290915290205460ff16620002f85760008281526006602090815260408083206001600160a01b03851684529091529020805460ff19166001179055620002b73390565b6001600160a01b0316816001600160a01b0316837f2f8788117e7eff1d82e926ec794901d17c78024a50270940304540a733656f0d60405160405180910390a45b5050565b600062000313836001600160a01b0384166200031c565b90505b92915050565b6000818152600183016020526040812054620003655750815460018181018455600084815260208082209093018490558454848252828601909352604090209190915562000316565b50600062000316565b8280546200037c9062000719565b90600052602060002090601f016020900481019282620003a05760008555620003eb565b82601f10620003bb57805160ff1916838001178555620003eb565b82800160010185558215620003eb579182015b82811115620003eb578251825591602001919060010190620003ce565b50620003f99291506200043a565b5090565b828054828255906000526020600020908101928215620003eb5791602002820182811115620003eb578251825591602001919060010190620003ce565b5b80821115620003f957600081556001016200043b565b80516001600160a01b03811681146200046957600080fd5b919050565b634e487b7160e01b600052604160045260246000fd5b604051601f8201601f191681016001600160401b0381118282101715620004af57620004af6200046e565b604052919050565b600082601f830112620004c957600080fd5b81516001600160401b03811115620004e557620004e56200046e565b6020620004fb601f8301601f1916820162000484565b82815285828487010111156200051057600080fd5b60005b838110156200053057858101830151828201840152820162000513565b83811115620005425760008385840101525b5095945050505050565b600082601f8301126200055e57600080fd5b815160206001600160401b038211156200057c576200057c6200046e565b8160051b6200058d82820162000484565b9283528481018201928281019087851115620005a857600080fd5b83870192505b84831015620005d257620005c28362000451565b82529183019190830190620005ae565b979650505050505050565b60008060008060008060c08789031215620005f757600080fd5b620006028762000451565b60208801519096506001600160401b03808211156200062057600080fd5b6200062e8a838b01620004b7565b965060408901519150808211156200064557600080fd5b620006538a838b01620004b7565b95506060890151945060808901519150808211156200067157600080fd5b6200067f8a838b016200054c565b935060a08901519150808211156200069657600080fd5b50620006a589828a016200054c565b9150509295509295509295565b6000816000190483118215151615620006db57634e487b7160e01b600052601160045260246000fd5b500290565b600082620006fe57634e487b7160e01b600052601260045260246000fd5b500490565b634e487b7160e01b600052603260045260246000fd5b600181811c908216806200072e57607f821691505b602082108114156200075057634e487b7160e01b600052602260045260246000fd5b50919050565b608051614101620007db600039600081816105790152818161099301528181610cff01528181610d4c015281816110bb015281816111ce01528181611625015281816118be01528181612024015281816122960152818161232801528181612d8e01528181612e2e01528181612faa015281816130b601526131d801526141016000f3fe608060405234801561001057600080fd5b50600436106103f05760003560e01c80636e553f6511610215578063ba08765211610125578063ce96cb77116100b8578063dd62ed3e11610087578063dd62ed3e146108d2578063de5f6268146108e5578063def68a9c146108ed578063ef8b30f714610900578063f06c56101461091357600080fd5b8063ce96cb771461088a578063d250f0881461089d578063d547741f146108ac578063d905777e146108bf57600080fd5b8063c6e6f592116100f4578063c6e6f5921461083e578063c822adda14610851578063c9411e2214610864578063ca15c8731461087757600080fd5b8063ba087652146107fc578063bb994d481461080f578063c3535b5214610822578063c63d75b61461082b57600080fd5b806394bf804d116101a8578063a457c2d711610177578063a457c2d71461079d578063a9059cbb146107b0578063ac579b77146107c3578063b3d7f6b9146107d6578063b460af94146107e957600080fd5b806394bf804d1461076557806395d89b41146107785780639cfdede314610780578063a217fddf1461079557600080fd5b806377c7b8fc116101e457806377c7b8fc146107245780637a5503651461072c5780639010d07c1461073f57806391d148541461075257600080fd5b80636e553f65146106b85780636f9c94a8146106cb57806370a08231146106d4578063724c184c146106fd57600080fd5b80632f4350c211610310578063402d267d116102a3578063462f82f411610272578063462f82f41461066d578063483b6031146106805780634870dd9a146106895780634cdad506146106925780635f3d3a0e146106a557600080fd5b8063402d267d1461063f578063422327161461065257806344b813961461065b57806345f7f2491461066457600080fd5b806338d52e0f116102df57806338d52e0f1461057457806339509351146105b357806339ebf823146105c65780633f23fa1a1461063657600080fd5b80632f4350c214610532578063313ce5671461053a5780633403c2fc1461055457806336568abe1461056157600080fd5b806314c6440211610388578063248a9ca311610357578063248a9ca3146104df57806329b9d694146105025780632a0acc6a1461050a5780632f2ff15d1461051f57600080fd5b806314c64402146104a957806318160ddd146104bc578063199cb7d8146104c457806323b872dd146104cc57600080fd5b806307a2d13a116103c457806307a2d13a1461045d578063095ea7b3146104705780630a28a477146104835780630f3d249d1461049657600080fd5b8062272d81146103f557806301e1d1141461040a57806301ffc9a71461042557806306fdde0314610448575b600080fd5b6104086104033660046139f3565b61091c565b005b61041261096f565b6040519081526020015b60405180910390f35b610438610433366004613a0c565b610a0d565b604051901515815260200161041c565b610450610a38565b60405161041c9190613a62565b61041261046b3660046139f3565b610aca565b61043861047e366004613aaa565b610afe565b6104126104913660046139f3565b610b16565b6104126104a4366004613ad6565b610b66565b6104086104b7366004613b06565b610ed3565b600254610412565b610412610f6a565b6104386104da366004613b23565b61113b565b6104126104ed3660046139f3565b60009081526006602052604090206001015490565b61040861115f565b61041260008051602061408c83398151915281565b61040861052d366004613b64565b611183565b6104086111ad565b6105426111ca565b60405160ff909116815260200161041c565b600f546104389060ff1681565b61040861056f366004613b64565b61124e565b61059b7f000000000000000000000000000000000000000000000000000000000000000081565b6040516001600160a01b03909116815260200161041c565b6104386105c1366004613aaa565b6112cc565b6106096105d4366004613b94565b600860205260009081526040902080546001820154600283015460038401546004850154600590950154939492939192909186565b604080519687526020870195909552938501929092526060840152608083015260a082015260c00161041c565b610412600a5481565b61041261064d366004613b94565b6112ee565b61041260115481565b61041260125481565b610412600c5481565b61040861067b3660046139f3565b61131c565b61041260105481565b61041261271081565b6104126106a03660046139f3565b6113ce565b6104086106b3366004613aaa565b6113d9565b6104126106c6366004613b64565b611529565b610412600b5481565b6104126106e2366004613b94565b6001600160a01b031660009081526020819052604090205490565b6104127f8b5b16d04624687fcf0d0228f19993c9157c1ed07b41d8d430fd9100eb099fe881565b6104126116a8565b61040861073a3660046139f3565b6116c0565b61059b61074d366004613ad6565b611770565b610438610760366004613b64565b611788565b610412610773366004613b64565b6117b3565b610450611943565b6104126000805160206140ac83398151915281565b610412600081565b6104386107ab366004613aaa565b611952565b6104386107be366004613aaa565b6119cd565b6104086107d1366004613bb1565b6119db565b6104126107e43660046139f3565b611bac565b6104126107f7366004613c26565b611bd9565b61041261080a366004613c26565b611c22565b61040861081d366004613b94565b611c6c565b610412600d5481565b610412610839366004613b94565b611d43565b61041261084c3660046139f3565b611d52565b61059b61085f3660046139f3565b611d8f565b610408610872366004613aaa565b611db9565b6104126108853660046139f3565b6121d6565b610412610898366004613b94565b6121ed565b610412670de0b6b3a764000081565b6104086108ba366004613b64565b61220f565b6104126108cd366004613b94565b612234565b6104126108e0366004613c68565b612252565b61040861227d565b6104086108fb366004613b94565b61230f565b61041261090e3660046139f3565b612458565b610412600e5481565b61093360008051602061408c8339815191526124fe565b600a8190556040518181527f2923cecec41b7140eaf657a035af4abb23ed61d16b1fc20a986838eb3ad99bd0906020015b60405180910390a150565b600c546040516370a0823160e01b8152306004820152600091906001600160a01b037f000000000000000000000000000000000000000000000000000000000000000016906370a0823190602401602060405180830381865afa1580156109da573d6000803e3d6000fd5b505050506040513d601f19601f820116820180604052508101906109fe9190613c96565b610a089190613cc5565b905090565b60006001600160e01b03198216635a05180f60e01b1480610a325750610a32826125b0565b92915050565b606060038054610a4790613cdd565b80601f0160208091040260200160405190810160405280929190818152602001828054610a7390613cdd565b8015610ac05780601f10610a9557610100808354040283529160200191610ac0565b820191906000526020600020905b815481529060010190602001808311610aa357829003601f168201915b5050505050905090565b600080610ad660025490565b905080610ae4575090919050565b610af7610aef6125e5565b849083612601565b9392505050565b600033610b0c818585612620565b5060019392505050565b600080610b2260025490565b9050610b2d60025490565b610b3a5750600092915050565b6000610b446125e5565b905080610b5357509192915050565b610b5e848383612744565b949350505050565b3360008181526008602052604081208054919291610bd55760405162461bcd60e51b815260206004820152602160248201527f4f6e6c792061637469766520737472617465676965732063616e207265706f726044820152601d60fa1b60648201526084015b60405180910390fd5b6000806000871215610bfb57610bea87613d18565b9150610bf68483612772565b610c18565b86905086836003016000828254610c129190613cc5565b90915550505b6000610c22610f6a565b90506000806000831215610c9257610c3983613d18565b9150610c45828a6128c7565b98508815610c8d5788866002016000828254610c619190613d35565b9250508190555088600c6000828254610c7a9190613d35565b90915550610c8a90508983613d35565b91505b610cc8565b82905080866002016000828254610ca99190613cc5565b9250508190555080600c6000828254610cc29190613cc5565b90915550505b8860008b1315610cdf57610cdc8b82613cc5565b90505b80821115610d2b57610d2688610cf58385613d35565b6001600160a01b037f00000000000000000000000000000000000000000000000000000000000000001691906128dd565b610d74565b80821015610d7457610d748830610d428585613d35565b6001600160a01b037f000000000000000000000000000000000000000000000000000000000000000016929190612940565b600085610d7f612978565b610d899190613cc5565b905086811115610da557610d9d8782613d35565b601255610dab565b60006012555b42886005018190555042600d81905550886001600160a01b03167fa42f52b692d89d13df3f5c859a3a9abb10ed8b2a804cddd5313217dc2f617e168d8d8b600301548c600401548d600201548e60010154604051610e3196959493929190958652602086019490945260408501929092526060840152608083015260a082015260c00190565b60405180910390a260018801541580610e4c5750600f5460ff165b15610ec357886001600160a01b031663722713f76040518163ffffffff1660e01b8152600401602060405180830381865afa158015610e8f573d6000803e3d6000fd5b505050506040513d601f19601f82011682018060405250810190610eb39190613c96565b9950505050505050505050610a32565b50919a9950505050505050505050565b60018115151415610f0c57610f077f8b5b16d04624687fcf0d0228f19993c9157c1ed07b41d8d430fd9100eb099fe86124fe565b610f23565b610f2360008051602061408c8339815191526124fe565b600f805460ff191682151590811790915560405160ff909116151581527fba40372a3a724dca3c57156128ef1e896724b65b37a17f190b1ad5de68f3a4f390602001610964565b600b5460009033901580610f805750600f5460ff165b15610fb0576001600160a01b038116600090815260086020526040902060020154610faa90613d18565b91505090565b6000612710610fbd61096f565b6001600160a01b038416600090815260086020526040902060010154610fe39190613d4c565b610fed9190613d6b565b6001600160a01b0383166000908152600860205260409020600201549091508181111561102f5761101e8282613d35565b61102790613d18565b935050505090565b8181101561113157600061271061104461096f565b600b546110519190613d4c565b61105b9190613d6b565b600c549091508181106110745760009550505050505090565b60006110808486613d35565b9050611095816110908486613d35565b6128c7565b6040516370a0823160e01b81523060048201529091506111269082906001600160a01b037f000000000000000000000000000000000000000000000000000000000000000016906370a0823190602401602060405180830381865afa158015611102573d6000803e3d6000fd5b505050506040513d601f19601f820116820180604052508101906110909190613c96565b979650505050505050565b6000935050505090565b6000336111498582856129e2565b611154858585612a56565b506001949350505050565b61117660008051602061408c8339815191526124fe565b61118160001961091c565b565b60008281526006602052604090206001015461119e81612bfa565b6111a88383612c04565b505050565b336000818152602081905260409020546111c79180611c22565b50565b60007f00000000000000000000000000000000000000000000000000000000000000006001600160a01b031663313ce5676040518163ffffffff1660e01b8152600401602060405180830381865afa15801561122a573d6000803e3d6000fd5b505050506040513d601f19601f82011682018060405250810190610a089190613d8d565b6001600160a01b03811633146112be5760405162461bcd60e51b815260206004820152602f60248201527f416363657373436f6e74726f6c3a2063616e206f6e6c792072656e6f756e636560448201526e103937b632b9903337b91039b2b63360891b6064820152608401610bcc565b6112c88282612c26565b5050565b600033610b0c8185856112df8383612252565b6112e99190613cc5565b612620565b6000806112f961096f565b9050600a5481111561130e5750600092915050565b80600a54610af79190613d35565b6113336000805160206140ac8339815191526124fe565b6127108111156113995760405162461bcd60e51b815260206004820152602b60248201527f77697468647261774d61784c6f73732063616e6e6f742062652067726561746560448201526a72207468616e203130302560a81b6064820152608401610bcc565b60108190556040518181527f23e1382e62459214e4b3240fe95817b36865752f45f7569957018fe5a105f7b590602001610964565b6000610a3282610aca565b6113f06000805160206140ac8339815191526124fe565b6001600160a01b0382166000908152600860205260409020546114555760405162461bcd60e51b815260206004820152601760248201527f5374726174656779206d757374206265206163746976650000000000000000006044820152606401610bcc565b6001600160a01b038216600090815260086020526040812060010154600b805491929091611484908490613d35565b90915550506001600160a01b0382166000908152600860205260408120600101829055600b80548392906114b9908490613cc5565b9091555050600b5461271010156114e25760405162461bcd60e51b8152600401610bcc90613db0565b816001600160a01b03167f437afd93b1abdad7ff741b69dde7efdd15dba7fb6999ba3471db17fd029dced98260405161151d91815260200190565b60405180910390a25050565b6000611533612c48565b600f5460ff16156115975760405162461bcd60e51b815260206004820152602860248201527f43616e6e6f74206465706f73697420647572696e6720656d657267656e63792060448201526739b43aba3237bbb760c11b6064820152608401610bcc565b826115b45760405162461bcd60e51b8152600401610bcc90613df5565b60006115be61096f565b600a549091506115ce8583613cc5565b111561160d5760405162461bcd60e51b815260206004820152600e60248201526d7661756c742069732066756c6c2160901b6044820152606401610bcc565b61161684612458565b915061164d6001600160a01b037f000000000000000000000000000000000000000000000000000000000000000016333087612940565b6116578383612ca2565b60408051858152602081018490526001600160a01b0385169133917fdcbc1c05240f31ff3ad067ef1ee35ce4997762752e3a095284754544f4c709d7910160405180910390a350610a326001600555565b6000610a086116b56111ca565b61046b90600a613f08565b6116d76000805160206140ac8339815191526124fe565b670de0b6b3a764000081111561173b5760405162461bcd60e51b8152602060048201526024808201527f4465677261646174696f6e2063616e6e6f74206265206d6f7265207468616e206044820152633130302560e01b6064820152608401610bcc565b60118190556040518181527f056863905a721211fc4dda1d688efc8f120b4b689d2e41da8249cf6eff20069190602001610964565b6000828152600760205260408120610af79083612d61565b60009182526006602090815260408084206001600160a01b0393909316845291905290205460ff1690565b60006117bd612c48565b600f5460ff161561181e5760405162461bcd60e51b815260206004820152602560248201527f43616e6e6f74206d696e7420647572696e6720656d657267656e6379207368756044820152643a3237bbb760d91b6064820152608401610bcc565b8261183b5760405162461bcd60e51b8152600401610bcc90613df5565b600061184684611bac565b9050600061185261096f565b600a549091506118628383613cc5565b11156118a15760405162461bcd60e51b815260206004820152600e60248201526d7661756c742069732066756c6c2160901b6044820152606401610bcc565b6118a96125e5565b6118b1578491505b6118e66001600160a01b037f000000000000000000000000000000000000000000000000000000000000000016333085612940565b6118f08486612ca2565b60408051838152602081018790526001600160a01b0386169133917fdcbc1c05240f31ff3ad067ef1ee35ce4997762752e3a095284754544f4c709d7910160405180910390a3509050610a326001600555565b606060048054610a4790613cdd565b600033816119608286612252565b9050838110156119c05760405162461bcd60e51b815260206004820152602560248201527f45524332303a2064656372656173656420616c6c6f77616e63652062656c6f77604482015264207a65726f60d81b6064820152608401610bcc565b6111548286868403612620565b600033610b0c818585612a56565b6119f26000805160206140ac8339815191526124fe565b8080611a4c5760405162461bcd60e51b8152602060048201526024808201527f43616e6e6f742073657420616e20656d707479207769746864726177616c20716044820152637565756560e01b6064820152608401610bcc565b611a58600960006139c5565b60005b81811015611b6e576000848483818110611a7757611a77613f17565b9050602002016020810190611a8c9190613b94565b6001600160a01b0381166000908152600860205260409020805491925090611b155760405162461bcd60e51b815260206004820152603660248201527f43616e206f6e6c792075736520616374697665207374726174656769657320696044820152756e20746865207769746864726177616c20717565756560501b6064820152608401610bcc565b5060098054600180820183556000929092527f6e1540171b6c0c960b71a7020d9f60077f6af931a8bbf590da0223dacf75c7af0180546001600160a01b0319166001600160a01b03939093169290921790915501611a5b565b507fe159a1b5cb3e0bbe2f0caa53bcf2cd9ea0bc25a8c7b8302b1ac510f29cac8baa6009604051611b9f9190613f2d565b60405180910390a1505050565b600080611bb860025490565b905080611bc6575090919050565b610af7611bd16125e5565b849083612744565b6000611be3612c48565b83611c005760405162461bcd60e51b8152600401610bcc90613df5565b611c0984610b16565b9050611c1784828585612d6d565b50610af76001600555565b6000611c2c612c48565b83611c495760405162461bcd60e51b8152600401610bcc90613df5565b611c52846113ce565b9050611c6081858585612d6d565b9050610af76001600555565b336001600160a01b03821614611ca557611ca57f8b5b16d04624687fcf0d0228f19993c9157c1ed07b41d8d430fd9100eb099fe86124fe565b6001600160a01b038116600090815260086020526040902060010154611cc85750565b6001600160a01b038116600090815260086020526040812060010154600b805491929091611cf7908490613d35565b90915550506001600160a01b038116600081815260086020526040808220600101829055517f4201c688d84c01154d321afa0c72f1bffe9eef53005c9de9d035074e71e9b32a9190a250565b6000610a3261084c60006112ee565b600080611d5e60025490565b90506000611d6a6125e5565b9050801580611d77575081155b15611d8457509192915050565b610b5e848383612601565b60098181548110611d9f57600080fd5b6000918252602090912001546001600160a01b0316905081565b611dc360006124fe565b600f5460ff1615611e2e5760405162461bcd60e51b815260206004820152602f60248201527f43616e6e6f7420616464206120737472617465677920647572696e6720656d6560448201526e3933b2b731bc9039b43aba3237bbb760891b6064820152608401610bcc565b6001600160a01b038216611e845760405162461bcd60e51b815260206004820152601b60248201527f43616e6e6f742061646420746865207a65726f206164647265737300000000006044820152606401610bcc565b6001600160a01b03821660009081526008602052604090205415611ef55760405162461bcd60e51b815260206004820152602260248201527f5374726174656779206d757374206e6f7420626520616464656420616c726561604482015261647960f01b6064820152608401610bcc565b816001600160a01b031663fbfa77cf6040518163ffffffff1660e01b8152600401602060405180830381865afa158015611f33573d6000803e3d6000fd5b505050506040513d601f19601f82011682018060405250810190611f579190613f7d565b6001600160a01b0316306001600160a01b031614611fb75760405162461bcd60e51b815260206004820181905260248201527f546865207374726174656779206d757374207573652074686973207661756c746044820152606401610bcc565b816001600160a01b0316631f1fcd516040518163ffffffff1660e01b8152600401602060405180830381865afa158015611ff5573d6000803e3d6000fd5b505050506040513d601f19601f820116820180604052508101906120199190613f7d565b6001600160a01b03167f00000000000000000000000000000000000000000000000000000000000000006001600160a01b0316146120a55760405162461bcd60e51b815260206004820152602360248201527f546865207374726174656779206d75737420757365207468652073616d652077604482015262185b9d60ea1b6064820152608401610bcc565b612710600b54826120b69190613cc5565b11156120d45760405162461bcd60e51b8152600401610bcc90613db0565b6040805160c0810182524280825260208083018581526000848601818152606086018281526080870183815260a088019687526001600160a01b038b16845260089095529682209551865591516001860155905160028501559351600384015551600483015551600590910155600b8054839290612153908490613cc5565b9091555050600980546001810182556000919091527f6e1540171b6c0c960b71a7020d9f60077f6af931a8bbf590da0223dacf75c7af0180546001600160a01b0319166001600160a01b0384169081179091556040518281527f2f564a83158ad1831793ad3e69257b52f39ece5d49cb0d8746708ecb9ef964da9060200161151d565b6000818152600760205260408120610a3290613253565b6001600160a01b038116600090815260208190526040812054610a3290610aca565b60008281526006602052604090206001015461222a81612bfa565b6111a88383612c26565b6001600160a01b038116600090815260208190526040812054610a32565b6001600160a01b03918216600090815260016020908152604080832093909416825291909152205490565b6040516370a0823160e01b81523360048201526111c7907f00000000000000000000000000000000000000000000000000000000000000006001600160a01b0316906370a0823190602401602060405180830381865afa1580156122e5573d6000803e3d6000fd5b505050506040513d601f19601f820116820180604052508101906123099190613c96565b33611529565b6123266000805160206140ac8339815191526124fe565b7f00000000000000000000000000000000000000000000000000000000000000006001600160a01b0316816001600160a01b031614156123915760405162461bcd60e51b815260206004820152600660248201526508585cdcd95d60d21b6044820152606401610bcc565b6040516370a0823160e01b81523060048201526000906001600160a01b038316906370a0823190602401602060405180830381865afa1580156123d8573d6000803e3d6000fd5b505050506040513d601f19601f820116820180604052508101906123fc9190613c96565b90506124126001600160a01b03831633836128dd565b604080516001600160a01b0384168152602081018390527f741ee845808813887c0b0d54aa20a3d0f670bebce7b6a1face577afbc00d1d6c910160405180910390a15050565b6000610a3282611d52565b61246d8282611788565b6112c85760008281526006602090815260408083206001600160a01b03851684529091529020805460ff191660011790556124a53390565b6001600160a01b0316816001600160a01b0316837f2f8788117e7eff1d82e926ec794901d17c78024a50270940304540a733656f0d60405160405180910390a45050565b6000610af7836001600160a01b03841661325d565b6013546000805b82811015612559576013818154811061252057612520613f17565b906000526020600020015484141561253a57809150612559565b612545600184613d35565b81141561255157600080fd5b600101612505565b5060005b8181116125aa5761258b6013828154811061257a5761257a613f17565b906000526020600020015433611788565b15612595576125aa565b818114156125a257600080fd5b60010161255d565b50505050565b60006001600160e01b03198216637965db0b60e01b1480610a3257506301ffc9a760e01b6001600160e01b0319831614610a32565b60006125ef612978565b6125f761096f565b610a089190613d35565b82820281151584158583048514171661261957600080fd5b0492915050565b6001600160a01b0383166126825760405162461bcd60e51b8152602060048201526024808201527f45524332303a20617070726f76652066726f6d20746865207a65726f206164646044820152637265737360e01b6064820152608401610bcc565b6001600160a01b0382166126e35760405162461bcd60e51b815260206004820152602260248201527f45524332303a20617070726f766520746f20746865207a65726f206164647265604482015261737360f01b6064820152608401610bcc565b6001600160a01b0383811660008181526001602090815260408083209487168084529482529182902085905590518481527f8c5be1e5ebec7d5bd14f71427d1e84f3dd0314c0f7b2291e5b200ac8c7c3b925910160405180910390a3505050565b82820281151584158583048514171661275c57600080fd5b6001826001830304018115150290509392505050565b6001600160a01b03821660009081526008602052604090206002810154808311156128055760405162461bcd60e51b815260206004820152603860248201527f53747261746567792063616e6e6f74206c6f6f7365206d6f7265207468616e2060448201527f776861742077617320616c6c6f636174656420746f20697400000000000000006064820152608401610bcc565b600b5415612874576000612837600c54600b54866128239190613d4c565b61282d9190613d6b565b84600101546128c7565b9050801561287257808360010160008282546128539190613d35565b9250508190555080600b600082825461286c9190613d35565b90915550505b505b828260040160008282546128889190613cc5565b92505081905550828260020160008282546128a39190613d35565b9250508190555082600c60008282546128bc9190613d35565b909155505050505050565b60008183106128d65781610af7565b5090919050565b6040516001600160a01b0383166024820152604481018290526111a890849063a9059cbb60e01b906064015b60408051601f198184030181529190526020810180516001600160e01b03166001600160e01b0319909316929092179091526132ac565b6040516001600160a01b03808516602483015283166044820152606481018290526125aa9085906323b872dd60e01b90608401612909565b600080601154600d544261298c9190613d35565b6129969190613d4c565b9050670de0b6b3a76400008110156129d657670de0b6b3a7640000601254826129bf9190613d4c565b6129c99190613d6b565b601254610faa9190613d35565b600091505090565b5090565b60006129ee8484612252565b905060001981146125aa5781811015612a495760405162461bcd60e51b815260206004820152601d60248201527f45524332303a20696e73756666696369656e7420616c6c6f77616e63650000006044820152606401610bcc565b6125aa8484848403612620565b6001600160a01b038316612aba5760405162461bcd60e51b815260206004820152602560248201527f45524332303a207472616e736665722066726f6d20746865207a65726f206164604482015264647265737360d81b6064820152608401610bcc565b6001600160a01b038216612b1c5760405162461bcd60e51b815260206004820152602360248201527f45524332303a207472616e7366657220746f20746865207a65726f206164647260448201526265737360e81b6064820152608401610bcc565b6001600160a01b03831660009081526020819052604090205481811015612b945760405162461bcd60e51b815260206004820152602660248201527f45524332303a207472616e7366657220616d6f756e7420657863656564732062604482015265616c616e636560d01b6064820152608401610bcc565b6001600160a01b03848116600081815260208181526040808320878703905593871680835291849020805487019055925185815290927fddf252ad1be2c89b69c2b068fc378daa952ba7f163c4a11628f55a4df523b3ef910160405180910390a36125aa565b6111c7813361337e565b612c0e8282612463565b60008281526007602052604090206111a890826124e9565b612c3082826133d7565b60008281526007602052604090206111a8908261343e565b60026005541415612c9b5760405162461bcd60e51b815260206004820152601f60248201527f5265656e7472616e637947756172643a207265656e7472616e742063616c6c006044820152606401610bcc565b6002600555565b6001600160a01b038216612cf85760405162461bcd60e51b815260206004820152601f60248201527f45524332303a206d696e7420746f20746865207a65726f2061646472657373006044820152606401610bcc565b8060026000828254612d0a9190613cc5565b90915550506001600160a01b038216600081815260208181526040808320805486019055518481527fddf252ad1be2c89b69c2b068fc378daa952ba7f163c4a11628f55a4df523b3ef910160405180910390a35050565b6000610af78383613453565b6000612d79828561347d565b6040516370a0823160e01b81523060048201527f00000000000000000000000000000000000000000000000000000000000000006001600160a01b0316906370a0823190602401602060405180830381865afa158015612ddd573d6000803e3d6000fd5b505050506040513d601f19601f82011682018060405250810190612e019190613c96565b8511156131cb5760095460009081805b828110156130a0576040516370a0823160e01b81523060048201527f00000000000000000000000000000000000000000000000000000000000000006001600160a01b0316906370a0823190602401602060405180830381865afa158015612e7d573d6000803e3d6000fd5b505050506040513d601f19601f82011682018060405250810190612ea19190613c96565b9150818911612eaf576130a0565b600060098281548110612ec457612ec4613f17565b60009182526020808320909101546001600160a01b0316808352600890915260409091206002015490915080612efb575050613098565b6000612f07858d613d35565b90506000836001600160a01b0316632e1a7d4d612f2484866128c7565b6040518263ffffffff1660e01b8152600401612f4291815260200190565b6020604051808303816000875af1158015612f61573d6000803e3d6000fd5b505050506040513d601f19601f82011682018060405250810190612f859190613c96565b6040516370a0823160e01b815230600482015290915060009087906001600160a01b037f000000000000000000000000000000000000000000000000000000000000000016906370a0823190602401602060405180830381865afa158015612ff1573d6000803e3d6000fd5b505050506040513d601f19601f820116820180604052508101906130159190613c96565b61301f9190613d35565b9050811561304957613031828f613d35565b9d5061303d828a613cc5565b98506130498583612772565b6001600160a01b03851660009081526008602052604081206002018054839290613074908490613d35565b9250508190555080600c600082825461308d9190613d35565b909155505050505050505b600101612e11565b506040516370a0823160e01b81523060048201527f00000000000000000000000000000000000000000000000000000000000000006001600160a01b0316906370a0823190602401602060405180830381865afa158015613105573d6000803e3d6000fd5b505050506040513d601f19601f820116820180604052508101906131299190613c96565b905080881115613137578097505b60105461271090613148858b613cc5565b6131529190613d4c565b61315c9190613d6b565b8311156131c75760405162461bcd60e51b815260206004820152603360248201527f43616e6e6f742065786365656420746865206d6178696d756d20616c6c6f77656044820152726420776974686472617720736c69707061676560681b6064820152608401610bcc565b5050505b6131ff6001600160a01b037f00000000000000000000000000000000000000000000000000000000000000001684876128dd565b60408051868152602081018690526001600160a01b03808516929086169133917ffbde797d201c681b91056529119e0b02407c7bb96a4a2c75c01fc9667232c8db910160405180910390a450929392505050565b6000610a32825490565b60008181526001830160205260408120546132a457508154600181810184556000848152602080822090930184905584548482528286019093526040902091909155610a32565b506000610a32565b6000613301826040518060400160405280602081526020017f5361666545524332303a206c6f772d6c6576656c2063616c6c206661696c6564815250856001600160a01b03166135af9092919063ffffffff16565b8051909150156111a8578080602001905181019061331f9190613f9a565b6111a85760405162461bcd60e51b815260206004820152602a60248201527f5361666545524332303a204552433230206f7065726174696f6e20646964206e6044820152691bdd081cdd58d8d9595960b21b6064820152608401610bcc565b6133888282611788565b6112c857613395816135be565b6133a08360206135d0565b6040516020016133b1929190613fb7565b60408051601f198184030181529082905262461bcd60e51b8252610bcc91600401613a62565b6133e18282611788565b156112c85760008281526006602090815260408083206001600160a01b0385168085529252808320805460ff1916905551339285917ff6391f5c32d9c69d2a47ea670b442974b53935d1edc7fd64eb21e047a839171b9190a45050565b6000610af7836001600160a01b03841661376c565b600082600001828154811061346a5761346a613f17565b9060005260206000200154905092915050565b6001600160a01b0382166134dd5760405162461bcd60e51b815260206004820152602160248201527f45524332303a206275726e2066726f6d20746865207a65726f206164647265736044820152607360f81b6064820152608401610bcc565b6001600160a01b038216600090815260208190526040902054818110156135515760405162461bcd60e51b815260206004820152602260248201527f45524332303a206275726e20616d6f756e7420657863656564732062616c616e604482015261636560f01b6064820152608401610bcc565b6001600160a01b0383166000818152602081815260408083208686039055600280548790039055518581529192917fddf252ad1be2c89b69c2b068fc378daa952ba7f163c4a11628f55a4df523b3ef910160405180910390a3505050565b6060610b5e848460008561385f565b6060610a326001600160a01b03831660145b606060006135df836002613d4c565b6135ea906002613cc5565b67ffffffffffffffff8111156136025761360261402c565b6040519080825280601f01601f19166020018201604052801561362c576020820181803683370190505b509050600360fc1b8160008151811061364757613647613f17565b60200101906001600160f81b031916908160001a905350600f60fb1b8160018151811061367657613676613f17565b60200101906001600160f81b031916908160001a905350600061369a846002613d4c565b6136a5906001613cc5565b90505b600181111561371d576f181899199a1a9b1b9c1cb0b131b232b360811b85600f16601081106136d9576136d9613f17565b1a60f81b8282815181106136ef576136ef613f17565b60200101906001600160f81b031916908160001a90535060049490941c9361371681614042565b90506136a8565b508315610af75760405162461bcd60e51b815260206004820181905260248201527f537472696e67733a20686578206c656e67746820696e73756666696369656e746044820152606401610bcc565b60008181526001830160205260408120548015613855576000613790600183613d35565b85549091506000906137a490600190613d35565b90508181146138095760008660000182815481106137c4576137c4613f17565b90600052602060002001549050808760000184815481106137e7576137e7613f17565b6000918252602080832090910192909255918252600188019052604090208390555b855486908061381a5761381a614059565b600190038181906000526020600020016000905590558560010160008681526020019081526020016000206000905560019350505050610a32565b6000915050610a32565b6060824710156138c05760405162461bcd60e51b815260206004820152602660248201527f416464726573733a20696e73756666696369656e742062616c616e636520666f6044820152651c8818d85b1b60d21b6064820152608401610bcc565b600080866001600160a01b031685876040516138dc919061406f565b60006040518083038185875af1925050503d8060008114613919576040519150601f19603f3d011682016040523d82523d6000602084013e61391e565b606091505b5091509150611126878383876060831561399657825161398f576001600160a01b0385163b61398f5760405162461bcd60e51b815260206004820152601d60248201527f416464726573733a2063616c6c20746f206e6f6e2d636f6e74726163740000006044820152606401610bcc565b5081610b5e565b610b5e83838151156139ab5781518083602001fd5b8060405162461bcd60e51b8152600401610bcc9190613a62565b50805460008255906000526020600020908101906111c791905b808211156129de57600081556001016139df565b600060208284031215613a0557600080fd5b5035919050565b600060208284031215613a1e57600080fd5b81356001600160e01b031981168114610af757600080fd5b60005b83811015613a51578181015183820152602001613a39565b838111156125aa5750506000910152565b6020815260008251806020840152613a81816040850160208701613a36565b601f01601f19169190910160400192915050565b6001600160a01b03811681146111c757600080fd5b60008060408385031215613abd57600080fd5b8235613ac881613a95565b946020939093013593505050565b60008060408385031215613ae957600080fd5b50508035926020909101359150565b80151581146111c757600080fd5b600060208284031215613b1857600080fd5b8135610af781613af8565b600080600060608486031215613b3857600080fd5b8335613b4381613a95565b92506020840135613b5381613a95565b929592945050506040919091013590565b60008060408385031215613b7757600080fd5b823591506020830135613b8981613a95565b809150509250929050565b600060208284031215613ba657600080fd5b8135610af781613a95565b60008060208385031215613bc457600080fd5b823567ffffffffffffffff80821115613bdc57600080fd5b818501915085601f830112613bf057600080fd5b813581811115613bff57600080fd5b8660208260051b8501011115613c1457600080fd5b60209290920196919550909350505050565b600080600060608486031215613c3b57600080fd5b833592506020840135613c4d81613a95565b91506040840135613c5d81613a95565b809150509250925092565b60008060408385031215613c7b57600080fd5b8235613c8681613a95565b91506020830135613b8981613a95565b600060208284031215613ca857600080fd5b5051919050565b634e487b7160e01b600052601160045260246000fd5b60008219821115613cd857613cd8613caf565b500190565b600181811c90821680613cf157607f821691505b60208210811415613d1257634e487b7160e01b600052602260045260246000fd5b50919050565b6000600160ff1b821415613d2e57613d2e613caf565b5060000390565b600082821015613d4757613d47613caf565b500390565b6000816000190483118215151615613d6657613d66613caf565b500290565b600082613d8857634e487b7160e01b600052601260045260246000fd5b500490565b600060208284031215613d9f57600080fd5b815160ff81168114610af757600080fd5b60208082526025908201527f546f74616c20616c6c6f636174696f6e20706f696e747320617265206f766572604082015264203130302560d81b606082015260800190565b6020808252601590820152741c1b19585cd9481c1c9bdd9a591948185b5bdd5b9d605a1b604082015260600190565b600181815b80851115613e5f578160001904821115613e4557613e45613caf565b80851615613e5257918102915b93841c9390800290613e29565b509250929050565b600082613e7657506001610a32565b81613e8357506000610a32565b8160018114613e995760028114613ea357613ebf565b6001915050610a32565b60ff841115613eb457613eb4613caf565b50506001821b610a32565b5060208310610133831016604e8410600b8410161715613ee2575081810a610a32565b613eec8383613e24565b8060001904821115613f0057613f00613caf565b029392505050565b6000610af760ff841683613e67565b634e487b7160e01b600052603260045260246000fd5b6020808252825482820181905260008481528281209092916040850190845b81811015613f715783546001600160a01b031683526001938401939285019201613f4c565b50909695505050505050565b600060208284031215613f8f57600080fd5b8151610af781613a95565b600060208284031215613fac57600080fd5b8151610af781613af8565b7f416363657373436f6e74726f6c3a206163636f756e7420000000000000000000815260008351613fef816017850160208801613a36565b7001034b99036b4b9b9b4b733903937b6329607d1b6017918401918201528351614020816028840160208801613a36565b01602801949350505050565b634e487b7160e01b600052604160045260246000fd5b60008161405157614051613caf565b506000190190565b634e487b7160e01b600052603160045260246000fd5b60008251614081818460208701613a36565b919091019291505056fedf8b4c520ffe197c5343c6f5aec59570151ef9a492f2c624fd45ddde6135ec42b17d0a42cc710456bf9c3efb785dcd0cb93a0ac358113307b5c64b285b516b5ca2646970667358221220eb753cc4dcae7862eb9e49c3f06e3a997d65f59f948e90e6b25d191272a6ab9c64736f6c634300080b0033df8b4c520ffe197c5343c6f5aec59570151ef9a492f2c624fd45ddde6135ec42b17d0a42cc710456bf9c3efb785dcd0cb93a0ac358113307b5c64b285b516b5c",
    "linkReferences": {}
  },
  "methodIdentifiers": {
    "ADMIN()": "2a0acc6a",
    "DEFAULT_ADMIN_ROLE()": "a217fddf",
    "DEGRADATION_COEFFICIENT()": "d250f088",
    "GUARDIAN()": "724c184c",
    "PERCENT_DIVISOR()": "4870dd9a",
    "STRATEGIST()": "9cfdede3",
    "addStrategy(address,uint256)": "c9411e22",
    "allowance(address,address)": "dd62ed3e",
    "approve(address,uint256)": "095ea7b3",
    "asset()": "38d52e0f",
    "availableCapital()": "199cb7d8",
    "balanceOf(address)": "70a08231",
    "constructionTime()": "f06c5610",
    "convertToAssets(uint256)": "07a2d13a",
    "convertToShares(uint256)": "c6e6f592",
    "decimals()": "313ce567",
    "decreaseAllowance(address,uint256)": "a457c2d7",
    "deposit(uint256,address)": "6e553f65",
    "depositAll()": "de5f6268",
    "emergencyShutdown()": "3403c2fc",
    "getPricePerFullShare()": "77c7b8fc",
    "getRoleAdmin(bytes32)": "248a9ca3",
    "getRoleMember(bytes32,uint256)": "9010d07c",
    "getRoleMemberCount(bytes32)": "ca15c873",
    "grantRole(bytes32,address)": "2f2ff15d",
    "hasRole(bytes32,address)": "91d14854",
    "inCaseTokensGetStuck(address)": "def68a9c",
    "increaseAllowance(address,uint256)": "39509351",
    "lastReport()": "c3535b52",
    "lockedProfit()": "44b81396",
    "lockedProfitDegradation()": "42232716",
    "maxDeposit(address)": "402d267d",
    "maxMint(address)": "c63d75b6",
    "maxRedeem(address)": "d905777e",
    "maxWithdraw(address)": "ce96cb77",
    "mint(uint256,address)": "94bf804d",
    "name()": "06fdde03",
    "previewDeposit(uint256)": "ef8b30f7",
    "previewMint(uint256)": "b3d7f6b9",
    "previewRedeem(uint256)": "4cdad506",
    "previewWithdraw(uint256)": "0a28a477",
    "redeem(uint256,address,address)": "ba087652",
    "redeemAll()": "2f4350c2",
    "removeTvlCap()": "29b9d694",
    "renounceRole(bytes32,address)": "36568abe",
    "report(int256,uint256)": "0f3d249d",
    "revokeRole(bytes32,address)": "d547741f",
    "revokeStrategy(address)": "bb994d48",
    "setEmergencyShutdown(bool)": "14c64402",
    "setLockedProfitDegradation(uint256)": "7a550365",
    "setWithdrawalQueue(address[])": "ac579b77",
    "strategies(address)": "39ebf823",
    "supportsInterface(bytes4)": "01ffc9a7",
    "symbol()": "95d89b41",
    "totalAllocBPS()": "6f9c94a8",
    "totalAllocated()": "45f7f249",
    "totalAssets()": "01e1d114",
    "totalSupply()": "18160ddd",
    "transfer(address,uint256)": "a9059cbb",
    "transferFrom(address,address,uint256)": "23b872dd",
    "tvlCap()": "3f23fa1a",
    "updateStrategyAllocBPS(address,uint256)": "5f3d3a0e",
    "updateTvlCap(uint256)": "00272d81",
    "updateWithdrawMaxLoss(uint256)": "462f82f4",
    "withdraw(uint256,address,address)": "b460af94",
    "withdrawMaxLoss()": "483b6031",
    "withdrawalQueue(uint256)": "c822adda"
  },
  "id": 46
}