{
  "abi": [
    {
      "anonymous": false,
      "inputs": [
        {
          "indexed": false,
          "internalType": "address",
          "name": "previousAdmin",
          "type": "address"
        },
        {
          "indexed": false,
          "internalType": "address",
          "name": "newAdmin",
          "type": "address"
        }
      ],
      "name": "AdminChanged",
      "type": "event"
    },
    {
      "anonymous": false,
      "inputs": [
        {
          "indexed": true,
          "internalType": "address",
          "name": "beacon",
          "type": "address"
        }
      ],
      "name": "BeaconUpgraded",
      "type": "event"
    },
    {
      "anonymous": false,
      "inputs": [
        {
          "indexed": false,
          "internalType": "uint256",
          "name": "newCallFee",
          "type": "uint256"
        },
        {
          "indexed": false,
          "internalType": "uint256",
          "name": "newTreasuryFee",
          "type": "uint256"
        },
        {
          "indexed": false,
          "internalType": "uint256",
          "name": "newStrategistFee",
          "type": "uint256"
        }
      ],
      "name": "FeesUpdated",
      "type": "event"
    },
    {
      "anonymous": false,
      "inputs": [
        {
          "indexed": false,
          "internalType": "uint8",
          "name": "version",
          "type": "uint8"
        }
      ],
      "name": "Initialized",
      "type": "event"
    },
    {
      "anonymous": false,
      "inputs": [
        {
          "indexed": true,
          "internalType": "bytes32",
          "name": "role",
          "type": "bytes32"
        },
        {
          "indexed": true,
          "internalType": "bytes32",
          "name": "previousAdminRole",
          "type": "bytes32"
        },
        {
          "indexed": true,
          "internalType": "bytes32",
          "name": "newAdminRole",
          "type": "bytes32"
        }
      ],
      "name": "RoleAdminChanged",
      "type": "event"
    },
    {
      "anonymous": false,
      "inputs": [
        {
          "indexed": true,
          "internalType": "bytes32",
          "name": "role",
          "type": "bytes32"
        },
        {
          "indexed": true,
          "internalType": "address",
          "name": "account",
          "type": "address"
        },
        {
          "indexed": true,
          "internalType": "address",
          "name": "sender",
          "type": "address"
        }
      ],
      "name": "RoleGranted",
      "type": "event"
    },
    {
      "anonymous": false,
      "inputs": [
        {
          "indexed": true,
          "internalType": "bytes32",
          "name": "role",
          "type": "bytes32"
        },
        {
          "indexed": true,
          "internalType": "address",
          "name": "account",
          "type": "address"
        },
        {
          "indexed": true,
          "internalType": "address",
          "name": "sender",
          "type": "address"
        }
      ],
      "name": "RoleRevoked",
      "type": "event"
    },
    {
      "anonymous": false,
      "inputs": [
        {
          "indexed": true,
          "internalType": "address",
          "name": "harvester",
          "type": "address"
        }
      ],
      "name": "StratHarvest",
      "type": "event"
    },
    {
      "anonymous": false,
      "inputs": [
        {
          "indexed": false,
          "internalType": "address",
          "name": "newStrategistRemitter",
          "type": "address"
        }
      ],
      "name": "StrategistRemitterUpdated",
      "type": "event"
    },
    {
      "anonymous": false,
      "inputs": [
        {
          "indexed": false,
          "internalType": "uint256",
          "name": "newFee",
          "type": "uint256"
        }
      ],
      "name": "TotalFeeUpdated",
      "type": "event"
    },
    {
      "anonymous": false,
      "inputs": [
        {
          "indexed": true,
          "internalType": "address",
          "name": "implementation",
          "type": "address"
        }
      ],
      "name": "Upgraded",
      "type": "event"
    },
    {
      "inputs": [],
      "name": "ADMIN",
      "outputs": [
        {
          "internalType": "bytes32",
          "name": "",
          "type": "bytes32"
        }
      ],
      "stateMutability": "view",
      "type": "function"
    },
    {
      "inputs": [],
      "name": "DAI",
      "outputs": [
        {
          "internalType": "address",
          "name": "",
          "type": "address"
        }
      ],
      "stateMutability": "view",
      "type": "function"
    },
    {
      "inputs": [],
      "name": "DEFAULT_ADMIN_ROLE",
      "outputs": [
        {
          "internalType": "bytes32",
          "name": "",
          "type": "bytes32"
        }
      ],
      "stateMutability": "view",
      "type": "function"
    },
    {
      "inputs": [],
      "name": "GUARDIAN",
      "outputs": [
        {
          "internalType": "bytes32",
          "name": "",
          "type": "bytes32"
        }
      ],
      "stateMutability": "view",
      "type": "function"
    },
    {
      "inputs": [],
      "name": "KEEPER",
      "outputs": [
        {
          "internalType": "bytes32",
          "name": "",
          "type": "bytes32"
        }
      ],
      "stateMutability": "view",
      "type": "function"
    },
    {
      "inputs": [],
      "name": "LTV_SAFETY_ZONE",
      "outputs": [
        {
          "internalType": "uint256",
          "name": "",
          "type": "uint256"
        }
      ],
      "stateMutability": "view",
      "type": "function"
    },
    {
      "inputs": [],
      "name": "MANTISSA",
      "outputs": [
        {
          "internalType": "uint256",
          "name": "",
          "type": "uint256"
        }
      ],
      "stateMutability": "view",
      "type": "function"
    },
    {
      "inputs": [],
      "name": "MAX_FEE",
      "outputs": [
        {
          "internalType": "uint256",
          "name": "",
          "type": "uint256"
        }
      ],
      "stateMutability": "view",
      "type": "function"
    },
    {
      "inputs": [],
      "name": "ONE_YEAR",
      "outputs": [
        {
          "internalType": "uint256",
          "name": "",
          "type": "uint256"
        }
      ],
      "stateMutability": "view",
      "type": "function"
    },
    {
      "inputs": [],
      "name": "PERCENT_DIVISOR",
      "outputs": [
        {
          "internalType": "uint256",
          "name": "",
          "type": "uint256"
        }
      ],
      "stateMutability": "view",
      "type": "function"
    },
    {
      "inputs": [],
      "name": "SCREAM",
      "outputs": [
        {
          "internalType": "address",
          "name": "",
          "type": "address"
        }
      ],
      "stateMutability": "view",
      "type": "function"
    },
    {
      "inputs": [],
      "name": "STRATEGIST",
      "outputs": [
        {
          "internalType": "bytes32",
          "name": "",
          "type": "bytes32"
        }
      ],
      "stateMutability": "view",
      "type": "function"
    },
    {
      "inputs": [],
      "name": "STRATEGIST_MAX_FEE",
      "outputs": [
        {
          "internalType": "uint256",
          "name": "",
          "type": "uint256"
        }
      ],
      "stateMutability": "view",
      "type": "function"
    },
    {
      "inputs": [],
      "name": "UNI_ROUTER",
      "outputs": [
        {
          "internalType": "address",
          "name": "",
          "type": "address"
        }
      ],
      "stateMutability": "view",
      "type": "function"
    },
    {
      "inputs": [],
      "name": "UPGRADE_TIMELOCK",
      "outputs": [
        {
          "internalType": "uint256",
          "name": "",
          "type": "uint256"
        }
      ],
      "stateMutability": "view",
      "type": "function"
    },
    {
      "inputs": [],
      "name": "WFTM",
      "outputs": [
        {
          "internalType": "address",
          "name": "",
          "type": "address"
        }
      ],
      "stateMutability": "view",
      "type": "function"
    },
    {
      "inputs": [],
      "name": "allowedLTVDrift",
      "outputs": [
        {
          "internalType": "uint256",
          "name": "",
          "type": "uint256"
        }
      ],
      "stateMutability": "view",
      "type": "function"
    },
    {
      "inputs": [],
      "name": "balanceOf",
      "outputs": [
        {
          "internalType": "uint256",
          "name": "",
          "type": "uint256"
        }
      ],
      "stateMutability": "view",
      "type": "function"
    },
    {
      "inputs": [],
      "name": "balanceOfPool",
      "outputs": [
        {
          "internalType": "uint256",
          "name": "",
          "type": "uint256"
        }
      ],
      "stateMutability": "view",
      "type": "function"
    },
    {
      "inputs": [],
      "name": "balanceOfWant",
      "outputs": [
        {
          "internalType": "uint256",
          "name": "",
          "type": "uint256"
        }
      ],
      "stateMutability": "view",
      "type": "function"
    },
    {
      "inputs": [],
      "name": "borrowDepth",
      "outputs": [
        {
          "internalType": "uint256",
          "name": "",
          "type": "uint256"
        }
      ],
      "stateMutability": "view",
      "type": "function"
    },
    {
      "inputs": [],
      "name": "cWant",
      "outputs": [
        {
          "internalType": "contract CErc20I",
          "name": "",
          "type": "address"
        }
      ],
      "stateMutability": "view",
      "type": "function"
    },
    {
      "inputs": [],
      "name": "calculateLTV",
      "outputs": [
        {
          "internalType": "uint256",
          "name": "ltv",
          "type": "uint256"
        }
      ],
      "stateMutability": "view",
      "type": "function"
    },
    {
      "inputs": [],
      "name": "callFee",
      "outputs": [
        {
          "internalType": "uint256",
          "name": "",
          "type": "uint256"
        }
      ],
      "stateMutability": "view",
      "type": "function"
    },
    {
      "inputs": [],
      "name": "clearUpgradeCooldown",
      "outputs": [],
      "stateMutability": "nonpayable",
      "type": "function"
    },
    {
      "inputs": [],
      "name": "comptroller",
      "outputs": [
        {
          "internalType": "contract IComptroller",
          "name": "",
          "type": "address"
        }
      ],
      "stateMutability": "view",
      "type": "function"
    },
    {
      "inputs": [],
      "name": "emergencyExit",
      "outputs": [
        {
          "internalType": "bool",
          "name": "",
          "type": "bool"
        }
      ],
      "stateMutability": "view",
      "type": "function"
    },
    {
      "inputs": [],
      "name": "getCurrentPosition",
      "outputs": [
        {
          "internalType": "uint256",
          "name": "supplied",
          "type": "uint256"
        },
        {
          "internalType": "uint256",
          "name": "borrowed",
          "type": "uint256"
        }
      ],
      "stateMutability": "view",
      "type": "function"
    },
    {
      "inputs": [
        {
          "internalType": "bytes32",
          "name": "role",
          "type": "bytes32"
        }
      ],
      "name": "getRoleAdmin",
      "outputs": [
        {
          "internalType": "bytes32",
          "name": "",
          "type": "bytes32"
        }
      ],
      "stateMutability": "view",
      "type": "function"
    },
    {
      "inputs": [
        {
          "internalType": "bytes32",
          "name": "role",
          "type": "bytes32"
        },
        {
          "internalType": "uint256",
          "name": "index",
          "type": "uint256"
        }
      ],
      "name": "getRoleMember",
      "outputs": [
        {
          "internalType": "address",
          "name": "",
          "type": "address"
        }
      ],
      "stateMutability": "view",
      "type": "function"
    },
    {
      "inputs": [
        {
          "internalType": "bytes32",
          "name": "role",
          "type": "bytes32"
        }
      ],
      "name": "getRoleMemberCount",
      "outputs": [
        {
          "internalType": "uint256",
          "name": "",
          "type": "uint256"
        }
      ],
      "stateMutability": "view",
      "type": "function"
    },
    {
      "inputs": [
        {
          "internalType": "bytes32",
          "name": "role",
          "type": "bytes32"
        },
        {
          "internalType": "address",
          "name": "account",
          "type": "address"
        }
      ],
      "name": "grantRole",
      "outputs": [],
      "stateMutability": "nonpayable",
      "type": "function"
    },
    {
      "inputs": [],
      "name": "harvest",
      "outputs": [
        {
          "internalType": "uint256",
          "name": "callerFee",
          "type": "uint256"
        }
      ],
      "stateMutability": "nonpayable",
      "type": "function"
    },
    {
      "inputs": [
        {
          "internalType": "bytes32",
          "name": "role",
          "type": "bytes32"
        },
        {
          "internalType": "address",
          "name": "account",
          "type": "address"
        }
      ],
      "name": "hasRole",
      "outputs": [
        {
          "internalType": "bool",
          "name": "",
          "type": "bool"
        }
      ],
      "stateMutability": "view",
      "type": "function"
    },
    {
      "inputs": [
        {
          "internalType": "address",
          "name": "_vault",
          "type": "address"
        },
        {
          "internalType": "address[]",
          "name": "_feeRemitters",
          "type": "address[]"
        },
        {
          "internalType": "address[]",
          "name": "_strategists",
          "type": "address[]"
        },
        {
          "internalType": "address[]",
          "name": "_multisigRoles",
          "type": "address[]"
        },
        {
          "internalType": "address",
          "name": "_scWant",
          "type": "address"
        }
      ],
      "name": "initialize",
      "outputs": [],
      "stateMutability": "nonpayable",
      "type": "function"
    },
    {
      "inputs": [],
      "name": "initiateUpgradeCooldown",
      "outputs": [],
      "stateMutability": "nonpayable",
      "type": "function"
    },
    {
      "inputs": [],
      "name": "lastHarvestTimestamp",
      "outputs": [
        {
          "internalType": "uint256",
          "name": "",
          "type": "uint256"
        }
      ],
      "stateMutability": "view",
      "type": "function"
    },
    {
      "inputs": [
        {
          "internalType": "uint256",
          "name": "amount",
          "type": "uint256"
        }
      ],
      "name": "manualDeleverage",
      "outputs": [],
      "stateMutability": "nonpayable",
      "type": "function"
    },
    {
      "inputs": [
        {
          "internalType": "uint256",
          "name": "amount",
          "type": "uint256"
        }
      ],
      "name": "manualReleaseWant",
      "outputs": [],
      "stateMutability": "nonpayable",
      "type": "function"
    },
    {
      "inputs": [
        {
          "internalType": "uint256",
          "name": "",
          "type": "uint256"
        }
      ],
      "name": "markets",
      "outputs": [
        {
          "internalType": "address",
          "name": "",
          "type": "address"
        }
      ],
      "stateMutability": "view",
      "type": "function"
    },
    {
      "inputs": [],
      "name": "maxBorrowDepth",
      "outputs": [
        {
          "internalType": "uint256",
          "name": "",
          "type": "uint256"
        }
      ],
      "stateMutability": "view",
      "type": "function"
    },
    {
      "inputs": [],
      "name": "minScreamToSell",
      "outputs": [
        {
          "internalType": "uint256",
          "name": "",
          "type": "uint256"
        }
      ],
      "stateMutability": "view",
      "type": "function"
    },
    {
      "inputs": [],
      "name": "minWantToLeverage",
      "outputs": [
        {
          "internalType": "uint256",
          "name": "",
          "type": "uint256"
        }
      ],
      "stateMutability": "view",
      "type": "function"
    },
    {
      "inputs": [],
      "name": "proxiableUUID",
      "outputs": [
        {
          "internalType": "bytes32",
          "name": "",
          "type": "bytes32"
        }
      ],
      "stateMutability": "view",
      "type": "function"
    },
    {
      "inputs": [
        {
          "internalType": "bytes32",
          "name": "role",
          "type": "bytes32"
        },
        {
          "internalType": "address",
          "name": "account",
          "type": "address"
        }
      ],
      "name": "renounceRole",
      "outputs": [],
      "stateMutability": "nonpayable",
      "type": "function"
    },
    {
      "inputs": [
        {
          "internalType": "bytes32",
          "name": "role",
          "type": "bytes32"
        },
        {
          "internalType": "address",
          "name": "account",
          "type": "address"
        }
      ],
      "name": "revokeRole",
      "outputs": [],
      "stateMutability": "nonpayable",
      "type": "function"
    },
    {
      "inputs": [
        {
          "internalType": "uint256",
          "name": "",
          "type": "uint256"
        }
      ],
      "name": "screamToWftmRoute",
      "outputs": [
        {
          "internalType": "address",
          "name": "",
          "type": "address"
        }
      ],
      "stateMutability": "view",
      "type": "function"
    },
    {
      "inputs": [
        {
          "internalType": "uint256",
          "name": "_drift",
          "type": "uint256"
        }
      ],
      "name": "setAllowedLtvDrift",
      "outputs": [],
      "stateMutability": "nonpayable",
      "type": "function"
    },
    {
      "inputs": [
        {
          "internalType": "uint8",
          "name": "_borrowDepth",
          "type": "uint8"
        }
      ],
      "name": "setBorrowDepth",
      "outputs": [],
      "stateMutability": "nonpayable",
      "type": "function"
    },
    {
      "inputs": [],
      "name": "setEmergencyExit",
      "outputs": [],
      "stateMutability": "nonpayable",
      "type": "function"
    },
    {
      "inputs": [
        {
          "internalType": "uint256",
          "name": "_minScreamToSell",
          "type": "uint256"
        }
      ],
      "name": "setMinScreamToSell",
      "outputs": [],
      "stateMutability": "nonpayable",
      "type": "function"
    },
    {
      "inputs": [
        {
          "internalType": "uint256",
          "name": "_minWantToLeverage",
          "type": "uint256"
        }
      ],
      "name": "setMinWantToLeverage",
      "outputs": [],
      "stateMutability": "nonpayable",
      "type": "function"
    },
    {
      "inputs": [
        {
          "internalType": "uint256",
          "name": "_ltv",
          "type": "uint256"
        }
      ],
      "name": "setTargetLtv",
      "outputs": [],
      "stateMutability": "nonpayable",
      "type": "function"
    },
    {
      "inputs": [
        {
          "internalType": "address[]",
          "name": "_newWftmToWantRoute",
          "type": "address[]"
        }
      ],
      "name": "setWftmToWantRoute",
      "outputs": [],
      "stateMutability": "nonpayable",
      "type": "function"
    },
    {
      "inputs": [],
      "name": "strategistFee",
      "outputs": [
        {
          "internalType": "uint256",
          "name": "",
          "type": "uint256"
        }
      ],
      "stateMutability": "view",
      "type": "function"
    },
    {
      "inputs": [],
      "name": "strategistRemitter",
      "outputs": [
        {
          "internalType": "address",
          "name": "",
          "type": "address"
        }
      ],
      "stateMutability": "view",
      "type": "function"
    },
    {
      "inputs": [
        {
          "internalType": "bytes4",
          "name": "interfaceId",
          "type": "bytes4"
        }
      ],
      "name": "supportsInterface",
      "outputs": [
        {
          "internalType": "bool",
          "name": "",
          "type": "bool"
        }
      ],
      "stateMutability": "view",
      "type": "function"
    },
    {
      "inputs": [],
      "name": "targetLTV",
      "outputs": [
        {
          "internalType": "uint256",
          "name": "",
          "type": "uint256"
        }
      ],
      "stateMutability": "view",
      "type": "function"
    },
    {
      "inputs": [],
      "name": "totalFee",
      "outputs": [
        {
          "internalType": "uint256",
          "name": "",
          "type": "uint256"
        }
      ],
      "stateMutability": "view",
      "type": "function"
    },
    {
      "inputs": [],
      "name": "treasury",
      "outputs": [
        {
          "internalType": "address",
          "name": "",
          "type": "address"
        }
      ],
      "stateMutability": "view",
      "type": "function"
    },
    {
      "inputs": [],
      "name": "treasuryFee",
      "outputs": [
        {
          "internalType": "uint256",
          "name": "",
          "type": "uint256"
        }
      ],
      "stateMutability": "view",
      "type": "function"
    },
    {
      "inputs": [],
      "name": "updateBalance",
      "outputs": [],
      "stateMutability": "nonpayable",
      "type": "function"
    },
    {
      "inputs": [
        {
          "internalType": "uint256",
          "name": "_callFee",
          "type": "uint256"
        },
        {
          "internalType": "uint256",
          "name": "_treasuryFee",
          "type": "uint256"
        },
        {
          "internalType": "uint256",
          "name": "_strategistFee",
          "type": "uint256"
        }
      ],
      "name": "updateFees",
      "outputs": [
        {
          "internalType": "bool",
          "name": "",
          "type": "bool"
        }
      ],
      "stateMutability": "nonpayable",
      "type": "function"
    },
    {
      "inputs": [
        {
          "internalType": "address",
          "name": "_newStrategistRemitter",
          "type": "address"
        }
      ],
      "name": "updateStrategistRemitter",
      "outputs": [],
      "stateMutability": "nonpayable",
      "type": "function"
    },
    {
      "inputs": [
        {
          "internalType": "uint256",
          "name": "_totalFee",
          "type": "uint256"
        }
      ],
      "name": "updateTotalFee",
      "outputs": [],
      "stateMutability": "nonpayable",
      "type": "function"
    },
    {
      "inputs": [
        {
          "internalType": "address",
          "name": "newTreasury",
          "type": "address"
        }
      ],
      "name": "updateTreasury",
      "outputs": [
        {
          "internalType": "bool",
          "name": "",
          "type": "bool"
        }
      ],
      "stateMutability": "nonpayable",
      "type": "function"
    },
    {
      "inputs": [],
      "name": "upgradeProposalTime",
      "outputs": [
        {
          "internalType": "uint256",
          "name": "",
          "type": "uint256"
        }
      ],
      "stateMutability": "view",
      "type": "function"
    },
    {
      "inputs": [
        {
          "internalType": "address",
          "name": "newImplementation",
          "type": "address"
        }
      ],
      "name": "upgradeTo",
      "outputs": [],
      "stateMutability": "nonpayable",
      "type": "function"
    },
    {
      "inputs": [
        {
          "internalType": "address",
          "name": "newImplementation",
          "type": "address"
        },
        {
          "internalType": "bytes",
          "name": "data",
          "type": "bytes"
        }
      ],
      "name": "upgradeToAndCall",
      "outputs": [],
      "stateMutability": "payable",
      "type": "function"
    },
    {
      "inputs": [],
      "name": "vault",
      "outputs": [
        {
          "internalType": "address",
          "name": "",
          "type": "address"
        }
      ],
      "stateMutability": "view",
      "type": "function"
    },
    {
      "inputs": [],
      "name": "want",
      "outputs": [
        {
          "internalType": "address",
          "name": "",
          "type": "address"
        }
      ],
      "stateMutability": "view",
      "type": "function"
    },
    {
      "inputs": [
        {
          "internalType": "uint256",
          "name": "",
          "type": "uint256"
        }
      ],
      "name": "wftmToDaiRoute",
      "outputs": [
        {
          "internalType": "address",
          "name": "",
          "type": "address"
        }
      ],
      "stateMutability": "view",
      "type": "function"
    },
    {
      "inputs": [
        {
          "internalType": "uint256",
          "name": "",
          "type": "uint256"
        }
      ],
      "name": "wftmToWantRoute",
      "outputs": [
        {
          "internalType": "address",
          "name": "",
          "type": "address"
        }
      ],
      "stateMutability": "view",
      "type": "function"
    },
    {
      "inputs": [
        {
          "internalType": "uint256",
          "name": "_amount",
          "type": "uint256"
        }
      ],
      "name": "withdraw",
      "outputs": [
        {
          "internalType": "uint256",
          "name": "loss",
          "type": "uint256"
        }
      ],
      "stateMutability": "nonpayable",
      "type": "function"
    }
  ],
  "bytecode": {
    "object": "0x60a0604052306080523480156200001557600080fd5b50600054610100900460ff1615808015620000375750600054600160ff909116105b8062000067575062000054306200014160201b620021331760201c565b15801562000067575060005460ff166001145b620000cf5760405162461bcd60e51b815260206004820152602e60248201527f496e697469616c697a61626c653a20636f6e747261637420697320616c72656160448201526d191e481a5b9a5d1a585b1a5e995960921b606482015260840160405180910390fd5b6000805460ff191660011790558015620000f3576000805461ff0019166101001790555b80156200013a576000805461ff0019169055604051600181527f7f26b83ff96e1f2b6a682f133852f6798a09c465da95921460cefb38474024989060200160405180910390a15b5062000150565b6001600160a01b03163b151590565b60805161554e62000188600039600081816110e70152818161112701528181611892015281816118d20152611961015261554e6000f3fe6080604052600436106104315760003560e01c8063722713f711610229578063b1283e771161012e578063d1125fd0116100b6578063e46257d21161007a578063e46257d214610c54578063ecf173ff14610c74578063ee0ab46514610c8a578063fbfa77cf14610cb2578063fcf2d0ad14610cd357600080fd5b8063d1125fd014610bab578063d32b960414610bcc578063d43cb96d14610bec578063d547741f14610c0c578063e0bab4c414610c2c57600080fd5b8063c1a3d44c116100fd578063c1a3d44c14610b1f578063c48896d014610b34578063ca15c87314610b54578063cc32d17614610b74578063d09e126314610b8b57600080fd5b8063b1283e7714610ab2578063b60afbcf14610ad2578063bc063e1a14610af2578063bc8ebf6b14610b0857600080fd5b80638888f9f6116101b157806391d148541161018057806391d1485414610a2f5780639768431714610a4f5780639cfdede314610a66578063a217fddf14610a88578063a9559dd714610a9d57600080fd5b80638888f9f6146109b75780639010d07c146109d857806390321e1a146109f8578063908ee91c14610a0f57600080fd5b806380b793dd116101f857806380b793dd1461092357806382b0b1751461094b578063862a179e14610960578063886fe9451461098257806388879985146109a257600080fd5b8063722713f7146108b5578063724c184c146108ca57806374872cf2146108ec5780637f51bb1f1461090357600080fd5b806332abda9c1161033a57806346d5b963116102c25780635641ec03116102865780635641ec031461081a5780635fe3b5671461083c57806361d027b31461085d578063651eebfe1461087e57806365ee33951461089557600080fd5b806346d5b963146107a55780634870dd9a146107c55780634f1ef286146107db578063526e1080146107ee57806352d1902d1461080557600080fd5b8063396794cd11610309578063396794cd1461071857806339a0e81a146107385780633a1fa3061461074f578063418f35cc146107665780634641257d1461079057600080fd5b806332abda9c146106ac57806336568abe146106c15780633659cfe6146106e1578063368018251461070157600080fd5b806322429085116103bd5780632703984c1161038c5780632703984c146105fc5780632a0acc6a146106185780632e1a7d4d1461064c5780632f2ff15d1461066c5780633042087c1461068c57600080fd5b8063224290851461057e5780632257a7381461059e578063248a9ca3146105b557806325ed32ca146105e557600080fd5b8063115880861161040457806311588086146104d757806316d3bfbb146104ee5780631df4ccfc146105065780631f1fcd511461051d57806321dbe8761461055657600080fd5b806301ffc9a714610436578063037f40041461046b57806306f05bbe146104955780630718d0c3146104b7575b600080fd5b34801561044257600080fd5b50610456610451366004614b22565b610ce8565b60405190151581526020015b60405180910390f35b34801561047757600080fd5b50610487670d99a8cec7e2000081565b604051908152602001610462565b3480156104a157600080fd5b506104b56104b0366004614b4c565b610d13565b005b3480156104c357600080fd5b506104b56104d2366004614b4c565b610d30565b3480156104e357600080fd5b506104876101405481565b3480156104fa57600080fd5b506104876301e1338081565b34801561051257600080fd5b506104876101345481565b34801561052957600080fd5b5061012d5461053e906001600160a01b031681565b6040516001600160a01b039091168152602001610462565b34801561056257600080fd5b5061053e7321be370d5312f44cb42ce377bc9b8a0cef1a4c8381565b34801561058a57600080fd5b50610456610599366004614b65565b610d4d565b3480156105aa57600080fd5b5061048761012e5481565b3480156105c157600080fd5b506104876105d0366004614b4c565b600090815260c9602052604090206001015490565b3480156105f157600080fd5b506104876202a30081565b34801561060857600080fd5b50610487670de0b6b3a764000081565b34801561062457600080fd5b506104877fdf8b4c520ffe197c5343c6f5aec59570151ef9a492f2c624fd45ddde6135ec4281565b34801561065857600080fd5b50610487610667366004614b4c565b610ddc565b34801561067857600080fd5b506104b5610687366004614ba6565b610e37565b34801561069857600080fd5b506104b56106a7366004614b4c565b610e61565b3480156106b857600080fd5b50610487610f78565b3480156106cd57600080fd5b506104b56106dc366004614ba6565b611059565b3480156106ed57600080fd5b506104b56106fc366004614bd6565b6110dc565b34801561070d57600080fd5b5061048761013e5481565b34801561072457600080fd5b506104b5610733366004614b4c565b6111b9565b34801561074457600080fd5b506104876101445481565b34801561075b57600080fd5b506104876101435481565b34801561077257600080fd5b5061077b611202565b60408051928352602083019190915201610462565b34801561079c57600080fd5b506104876112aa565b3480156107b157600080fd5b506104b56107c0366004614cb8565b611497565b3480156107d157600080fd5b5061048761271081565b6104b56107e9366004614d68565b611887565b3480156107fa57600080fd5b506104876101375481565b34801561081157600080fd5b50610487611954565b34801561082657600080fd5b5061012d5461045690600160a01b900460ff1681565b34801561084857600080fd5b506101395461053e906001600160a01b031681565b34801561086957600080fd5b506101315461053e906001600160a01b031681565b34801561088a57600080fd5b5061048761012f5481565b3480156108a157600080fd5b506104b56108b0366004614e10565b611a07565b3480156108c157600080fd5b50610487611a3a565b3480156108d657600080fd5b5061048760008051602061547283398151915281565b3480156108f857600080fd5b506104876101425481565b34801561090f57600080fd5b5061045661091e366004614bd6565b611a57565b34801561092f57600080fd5b5061053e73e0654c8e6fd4d733349ac7e09f6f23da256bf47581565b34801561095757600080fd5b506104b5611a89565b34801561096c57600080fd5b5061048760008051602061549283398151915281565b34801561098e57600080fd5b5061053e61099d366004614b4c565b611aa7565b3480156109ae57600080fd5b506104b5611ad2565b3480156109c357600080fd5b506101335461053e906001600160a01b031681565b3480156109e457600080fd5b5061053e6109f3366004614e33565b611b08565b348015610a0457600080fd5b506104876101355481565b348015610a1b57600080fd5b506104b5610a2a366004614b4c565b611b20565b348015610a3b57600080fd5b50610456610a4a366004614ba6565b611c04565b348015610a5b57600080fd5b506104876101415481565b348015610a7257600080fd5b506104876000805160206154f983398151915281565b348015610a9457600080fd5b50610487600081565b348015610aa957600080fd5b506104b5611c2f565b348015610abe57600080fd5b5061053e610acd366004614b4c565b611d28565b348015610ade57600080fd5b5061053e610aed366004614b4c565b611d39565b348015610afe57600080fd5b506104876103e881565b348015610b1457600080fd5b5061048761013f5481565b348015610b2b57600080fd5b50610487611d4a565b348015610b4057600080fd5b506104b5610b4f366004614e55565b611db8565b348015610b6057600080fd5b50610487610b6f366004614b4c565b611ee6565b348015610b8057600080fd5b506104876101365481565b348015610b9757600080fd5b506104b5610ba6366004614b4c565b611efd565b348015610bb757600080fd5b506101385461053e906001600160a01b031681565b348015610bd857600080fd5b506104b5610be7366004614b4c565b611fb0565b348015610bf857600080fd5b5061053e610c07366004614b4c565b612006565b348015610c1857600080fd5b506104b5610c27366004614ba6565b612017565b348015610c3857600080fd5b5061053e738d11ec38a3eb5e956b052f67da8bdc9bef8abf3e81565b348015610c6057600080fd5b506104b5610c6f366004614bd6565b61203c565b348015610c8057600080fd5b5061048761138881565b348015610c9657600080fd5b5061053e73f491e7b69e4244ad4002bc14e878a34207e38c2981565b348015610cbe57600080fd5b506101325461053e906001600160a01b031681565b348015610cdf57600080fd5b506104b56120a8565b60006001600160e01b03198216635a05180f60e01b1480610d0d5750610d0d82612142565b92915050565b610d2a6000805160206154f9833981519152612177565b61014455565b610d476000805160206154f9833981519152612177565b61014255565b6000610d5881612177565b612710610d658486614ee0565b14610d6f57600080fd5b611388821115610d7e57600080fd5b61013584905561013683905561013782905560408051858152602081018590529081018390527fcf8a1e1d5f09cf3c97dbb653cd9a4d7aace9292fbc1bb8211febf2d400febbdd9060600160405180910390a15060015b9392505050565b610132546000906001600160a01b03163314610df757600080fd5b81610e0157600080fd5b6000610e0c83612226565b6101325461012d54919450919250610e31916001600160a01b0391821691168361233e565b50919050565b600082815260c96020526040902060010154610e52816123a1565b610e5c83836123ab565b505050565b610e786000805160206154f9833981519152612177565b6101385460405163852a12e360e01b8152600481018390526001600160a01b039091169063852a12e3906024016020604051808303816000875af1158015610ec4573d6000803e3d6000fd5b505050506040513d601f19601f82011682018060405250810190610ee89190614ef8565b15610ef257600080fd5b6101385460405163073a938160e11b8152600481018390526001600160a01b0390911690630e752702906024015b6020604051808303816000875af1158015610f3f573d6000803e3d6000fd5b505050506040513d601f19601f82011682018060405250810190610f639190614ef8565b15610f6d57600080fd5b610f75611c2f565b50565b610138546040516361bfb47160e11b81523060048201526000918291829182916001600160a01b039091169063c37f68e290602401608060405180830381865afa158015610fca573d6000803e3d6000fd5b505050506040513d601f19601f82011682018060405250810190610fee9190614f11565b935093509350506000670de0b6b3a7640000828561100c9190614f47565b6110169190614f66565b9050801580611023575082155b1561103357600094505050505090565b8061104684670de0b6b3a7640000614f47565b6110509190614f66565b94505050505090565b6001600160a01b03811633146110ce5760405162461bcd60e51b815260206004820152602f60248201527f416363657373436f6e74726f6c3a2063616e206f6e6c792072656e6f756e636560448201526e103937b632b9903337b91039b2b63360891b60648201526084015b60405180910390fd5b6110d882826123cd565b5050565b306001600160a01b037f00000000000000000000000000000000000000000000000000000000000000001614156111255760405162461bcd60e51b81526004016110c590614f88565b7f00000000000000000000000000000000000000000000000000000000000000006001600160a01b031661116e6000805160206154b2833981519152546001600160a01b031690565b6001600160a01b0316146111945760405162461bcd60e51b81526004016110c590614fd4565b61119d816123ef565b60408051600080825260208201909252610f759183919061241e565b6111d06000805160206154f9833981519152612177565b6101385460405163852a12e360e01b8152600481018390526001600160a01b039091169063852a12e390602401610f20565b610138546040516361bfb47160e11b815230600482015260009182918291829182916001600160a01b03169063c37f68e290602401608060405180830381865afa158015611254573d6000803e3d6000fd5b505050506040513d601f19601f820116820180604052508101906112789190614f11565b93509350935050819350670de0b6b3a764000081846112979190614f47565b6112a19190614f66565b94505050509091565b60006112c3600080516020615492833981519152612177565b610132546040805163033396fb60e31b815290516000926001600160a01b03169163199cb7d89160048083019260209291908290030181865afa15801561130e573d6000803e3d6000fd5b505050506040513d601f19601f820116820180604052508101906113329190614ef8565b905060008082121561134a5761134782615020565b90505b61012d546000908190600160a01b900460ff16156113cd57600061136c612589565b90508381101561139057611380818561503d565b61138990615020565b92506113a5565b838111156113a5576113a2848261503d565b92505b83915060008312156113c7576113ba83615020565b6113c4908361503d565b91505b506113de565b6113d6836125aa565b919650925090505b61013254604051630f3d249d60e01b815260048101849052602481018390526001600160a01b0390911690630f3d249d906044016020604051808303816000875af1158015611431573d6000803e3d6000fd5b505050506040513d601f19601f820116820180604052508101906114559190614ef8565b9250611460836126d6565b4261012e5560405133907f577a37fdb49a88d66684922c6f913df5239b4f214b2b97c53ef8e3bbb2034cb590600090a25050505090565b600054610100900460ff16158080156114b75750600054600160ff909116105b806114d15750303b1580156114d1575060005460ff166001145b6115345760405162461bcd60e51b815260206004820152602e60248201527f496e697469616c697a61626c653a20636f6e747261637420697320616c72656160448201526d191e481a5b9a5d1a585b1a5e995960921b60648201526084016110c5565b6000805460ff191660011790558015611557576000805461ff0019166101001790555b61013880546001600160a01b0319166001600160a01b03841690811790915560408051636f307dc360e01b81529051636f307dc3916004808201926020929091908290030181865afa1580156115b1573d6000803e3d6000fd5b505050506040513d601f19601f820116820180604052508101906115d59190615054565b61012d80546001600160a01b0319166001600160a01b03929092169182179055611603908790878787612717565b60408051602081019091526001600160a01b03831681526116299061013d9060016149fc565b5061013860009054906101000a90046001600160a01b03166001600160a01b0316635fe3b5676040518163ffffffff1660e01b8152600401602060405180830381865afa15801561167e573d6000803e3d6000fd5b505050506040513d601f19601f820116820180604052508101906116a29190615054565b61013980546001600160a01b0319166001600160a01b03929092169190911790556040805180820190915273e0654c8e6fd4d733349ac7e09f6f23da256bf47581527321be370d5312f44cb42ce377bc9b8a0cef1a4c83602082015261170d9061013a9060026149fc565b50604080518082019091527321be370d5312f44cb42ce377bc9b8a0cef1a4c83815261012d546001600160a01b031660208201526117509061013b9060026149fc565b50604080518082019091527321be370d5312f44cb42ce377bc9b8a0cef1a4c838152738d11ec38a3eb5e956b052f67da8bdc9bef8abf3e602082015261179b9061013c9060026149fc565b50670685c682846f000061013e55662386f26fc1000061013f55600061014055600c610141556103e8610142819055600f610143556101445561013954604051631853304760e31b81526001600160a01b039091169063c2998238906118079061013d90600401615071565b600060405180830381600087803b15801561182157600080fd5b505af1158015611835573d6000803e3d6000fd5b50505050801561187f576000805461ff0019169055604051600181527f7f26b83ff96e1f2b6a682f133852f6798a09c465da95921460cefb38474024989060200160405180910390a15b505050505050565b306001600160a01b037f00000000000000000000000000000000000000000000000000000000000000001614156118d05760405162461bcd60e51b81526004016110c590614f88565b7f00000000000000000000000000000000000000000000000000000000000000006001600160a01b03166119196000805160206154b2833981519152546001600160a01b031690565b6001600160a01b03161461193f5760405162461bcd60e51b81526004016110c590614fd4565b611948826123ef565b6110d88282600161241e565b6000306001600160a01b037f000000000000000000000000000000000000000000000000000000000000000016146119f45760405162461bcd60e51b815260206004820152603860248201527f555550535570677261646561626c653a206d757374206e6f742062652063616c60448201527f6c6564207468726f7567682064656c656761746563616c6c000000000000000060648201526084016110c5565b506000805160206154b283398151915290565b611a1e6000805160206154f9833981519152612177565b610143548160ff161115611a3157600080fd5b60ff1661014155565b600061014054611a48611d4a565b611a529190614ee0565b905090565b6000611a6281612177565b5061013180546001600160a01b0319166001600160a01b0392909216919091179055600190565b611aa06000805160206154f9833981519152612177565b4261012f55565b61013b8181548110611ab857600080fd5b6000918252602090912001546001600160a01b0316905081565b611ae9600080516020615472833981519152612177565b611af86301e133806064614f47565b611b029042614ee0565b61012f55565b600082815260fb60205260408120610dd5908361297d565b611b37600080516020615492833981519152612177565b6101395461013854604051638e8f294b60e01b81526001600160a01b0391821660048201526000929190911690638e8f294b90602401606060405180830381865afa158015611b8a573d6000803e3d6000fd5b505050506040513d601f19601f82011682018060405250810190611bae91906150d6565b5091505061013f5482611bc19190614ee0565b8111611bcc57600080fd5b670de0b6b3a7640000611be7670d99a8cec7e2000083614f47565b611bf19190614f66565b821115611bfd57600080fd5b5061013e55565b600091825260c9602090815260408084206001600160a01b0393909316845291905290205460ff1690565b61013854604051633af9e66960e01b81523060048201526000916001600160a01b031690633af9e669906024016020604051808303816000875af1158015611c7b573d6000803e3d6000fd5b505050506040513d601f19601f82011682018060405250810190611c9f9190614ef8565b610138546040516305eff7ef60e21b81523060048201529192506000916001600160a01b03909116906317bfdfbc906024016020604051808303816000875af1158015611cf0573d6000803e3d6000fd5b505050506040513d601f19601f82011682018060405250810190611d149190614ef8565b9050611d20818361503d565b610140555050565b61013d8181548110611ab857600080fd5b61013c8181548110611ab857600080fd5b61012d546040516370a0823160e01b81523060048201526000916001600160a01b0316906370a0823190602401602060405180830381865afa158015611d94573d6000803e3d6000fd5b505050506040513d601f19601f82011682018060405250810190611a529190614ef8565b611dcf6000805160206154f9833981519152612177565b7321be370d5312f44cb42ce377bc9b8a0cef1a4c838282600081611df557611df5615112565b9050602002016020810190611e0a9190614bd6565b6001600160a01b031614611e4c5760405162461bcd60e51b815260206004820152600960248201526862616420726f75746560b81b60448201526064016110c5565b61012d546001600160a01b03168282611e6660018261503d565b818110611e7557611e75615112565b9050602002016020810190611e8a9190614bd6565b6001600160a01b031614611ecc5760405162461bcd60e51b815260206004820152600960248201526862616420726f75746560b81b60448201526064016110c5565b611ed961013b6000614a61565b610e5c61013b8383614a7f565b600081815260fb60205260408120610d0d90612989565b611f146000805160206154f9833981519152612177565b6101395461013854604051638e8f294b60e01b81526001600160a01b0391821660048201526000929190911690638e8f294b90602401606060405180830381865afa158015611f67573d6000803e3d6000fd5b505050506040513d601f19601f82011682018060405250810190611f8b91906150d6565b509150508161013e54611f9e9190614ee0565b8111611fa957600080fd5b5061013f55565b611fba6000612177565b6103e8811115611fc957600080fd5b6101348190556040518181527f2e59d502792bca3d730c472cd3acfbc16d0f9fe6ce0cddbdf0f80830251dfaca906020015b60405180910390a150565b61013a8181548110611ab857600080fd5b600082815260c96020526040902060010154612032816123a1565b610e5c83836123cd565b6120466000612177565b6001600160a01b03811661205957600080fd5b61013380546001600160a01b0319166001600160a01b0383169081179091556040519081527fa11c447ac90d9534769dc85d422963d67c1d8d899de887301417cedf4dec738d90602001611ffb565b6120bf600080516020615472833981519152612177565b61012d805460ff60a01b1916600160a01b1790556101325460405163177329a960e31b81523060048201526001600160a01b039091169063bb994d4890602401600060405180830381600087803b15801561211957600080fd5b505af115801561212d573d6000803e3d6000fd5b50505050565b6001600160a01b03163b151590565b60006001600160e01b03198216637965db0b60e01b1480610d0d57506301ffc9a760e01b6001600160e01b0319831614610d0d565b610130546000805b828110156121d457610130818154811061219b5761219b615112565b90600052602060002001548414156121b5578091506121d4565b6121c060018461503d565b8114156121cc57600080fd5b60010161217f565b5060005b81811161212d5761220761013082815481106121f6576121f6615112565b906000526020600020015433611c04565b156122115761212d565b8181141561221e57600080fd5b6001016121d8565b61012d546040516370a0823160e01b8152306004820152600091829182916001600160a01b0316906370a0823190602401602060405180830381865afa158015612274573d6000803e3d6000fd5b505050506040513d601f19601f820116820180604052508101906122989190614ef8565b905083811015612328576122b46122af828661503d565b612993565b61012d546040516370a0823160e01b81523060048201526001600160a01b03909116906370a0823190602401602060405180830381865afa1580156122fd573d6000803e3d6000fd5b505050506040513d601f19601f820116820180604052508101906123219190614ef8565b925061232c565b8392505b612336838561503d565b915050915091565b6040516001600160a01b038316602482015260448101829052610e5c90849063a9059cbb60e01b906064015b60408051601f198184030181529190526020810180516001600160e01b03166001600160e01b0319909316929092179091526129f6565b610f758133612ac8565b6123b58282612b21565b600082815260fb60205260409020610e5c9082612ba7565b6123d78282612bbc565b600082815260fb60205260409020610e5c9082612c23565b6123f96000612177565b426202a30061012f5461240c9190614ee0565b1061241657600080fd5b610f75611ad2565b7f4910fdfa16fed3260ed0e7147f7cc6da11a60208b5b9406d12a635614ffd91435460ff161561245157610e5c83612c38565b826001600160a01b03166352d1902d6040518163ffffffff1660e01b8152600401602060405180830381865afa9250505080156124ab575060408051601f3d908101601f191682019092526124a891810190614ef8565b60015b61250e5760405162461bcd60e51b815260206004820152602e60248201527f45524331393637557067726164653a206e657720696d706c656d656e7461746960448201526d6f6e206973206e6f74205555505360901b60648201526084016110c5565b6000805160206154b2833981519152811461257d5760405162461bcd60e51b815260206004820152602960248201527f45524331393637557067726164653a20756e737570706f727465642070726f786044820152681a58589b195555525160ba1b60648201526084016110c5565b50610e5c838383612cd4565b6000612596600019612cf9565b6125a261014054612d60565b611a52611d4a565b60008060006125b7612fd9565b6125bf613089565b6125c7613117565b92506125d16132f7565b610132546040516339ebf82360e01b81523060048201526000916001600160a01b0316906339ebf8239060240160c060405180830381865afa15801561261b573d6000803e3d6000fd5b505050506040513d601f19601f8201168201806040525081019061263f9190615128565b60400151905061264d611c2f565b6000612657611a3a565b9050858282111561268457600061266e848461503d565b905061267a8183614ee0565b90955090506126a2565b828210156126a257612696828461503d565b61269f90615020565b94505b6000806126ae83612226565b915091506126bc89836133a5565b95506126c881886151a2565b965050505050509193909250565b61012d54600160a01b900460ff16156126ec5750565b60006126f6611d4a565b9050818111156110d857600061270c838361503d565b9050610e5c816133bb565b600054610100900460ff1661273e5760405162461bcd60e51b81526004016110c5906151e1565b612746613485565b61274e613485565b6101c2610134556103e861013555612328610136556109c46101375561013280546001600160a01b0319166001600160a01b0387161790558251839060009061279957612799615112565b602002602001015161013160006101000a8154816001600160a01b0302191690836001600160a01b03160217905550826001815181106127db576127db615112565b602090810291909101015161013380546001600160a01b039283166001600160a01b03199182161790915561012d80548784169216821790556101325461282592166000196134ae565b60005b825181101561286a576128626000805160206154f983398151915284838151811061285557612855615112565b60200260200101516123ab565b600101612828565b506128766000336123ab565b6128906000801b8260008151811061285557612855615112565b6128c77fdf8b4c520ffe197c5343c6f5aec59570151ef9a492f2c624fd45ddde6135ec428260018151811061285557612855615112565b6128ec6000805160206154728339815191528260028151811061285557612855615112565b6040805160a081018252600081527fdf8b4c520ffe197c5343c6f5aec59570151ef9a492f2c624fd45ddde6135ec426020820152600080516020615472833981519152918101919091526000805160206154f98339815191526060820152600080516020615492833981519152608082015261296d90610130906005614ad2565b50612976611ad2565b5050505050565b6000610dd583836135c3565b6000610d0d825490565b600061299e826135ed565b90506129a981613733565b156129c4576129b782612d60565b6129bf613770565b6129ed565b6129cd816138c8565b156129e4576129db82612cf9565b6129bf82612d60565b6129ed82612d60565b50610f75611c2f565b6000612a4b826040518060400160405280602081526020017f5361666545524332303a206c6f772d6c6576656c2063616c6c206661696c6564815250856001600160a01b03166138eb9092919063ffffffff16565b805190915015610e5c5780806020019051810190612a69919061522c565b610e5c5760405162461bcd60e51b815260206004820152602a60248201527f5361666545524332303a204552433230206f7065726174696f6e20646964206e6044820152691bdd081cdd58d8d9595960b21b60648201526084016110c5565b612ad28282611c04565b6110d857612adf816138fa565b612aea83602061390c565b604051602001612afb929190615273565b60408051601f198184030181529082905262461bcd60e51b82526110c5916004016152e8565b612b2b8282611c04565b6110d857600082815260c9602090815260408083206001600160a01b03851684529091529020805460ff19166001179055612b633390565b6001600160a01b0316816001600160a01b0316837f2f8788117e7eff1d82e926ec794901d17c78024a50270940304540a733656f0d60405160405180910390a45050565b6000610dd5836001600160a01b038416613aa8565b612bc68282611c04565b156110d857600082815260c9602090815260408083206001600160a01b0385168085529252808320805460ff1916905551339285917ff6391f5c32d9c69d2a47ea670b442974b53935d1edc7fd64eb21e047a839171b9190a45050565b6000610dd5836001600160a01b038416613af7565b6001600160a01b0381163b612ca55760405162461bcd60e51b815260206004820152602d60248201527f455243313936373a206e657720696d706c656d656e746174696f6e206973206e60448201526c1bdd08184818dbdb9d1c9858dd609a1b60648201526084016110c5565b6000805160206154b283398151915280546001600160a01b0319166001600160a01b0392909216919091179055565b612cdd83613bea565b600082511180612cea5750805b15610e5c5761212d8383613c2a565b6000612d0482613d1e565b9050610142548111156110d85760005b61014254612d23906064614ee0565b821115610e5c57612d3382613e9d565b612d3d908361503d565b915080612d498161531b565b915050610141548110612d5b57505050565b612d14565b61013854604051633af9e66960e01b81523060048201526000916001600160a01b031690633af9e669906024016020604051808303816000875af1158015612dac573d6000803e3d6000fd5b505050506040513d601f19601f82011682018060405250810190612dd09190614ef8565b610138546040516395dd919360e01b81523060048201529192506000916001600160a01b03909116906395dd919390602401602060405180830381865afa158015612e1f573d6000803e3d6000fd5b505050506040513d601f19601f82011682018060405250810190612e439190614ef8565b90506000612e51828461503d565b905080612e5e5750505050565b80841115612e6a578093505b600061013f5461013e54612e7e9190614ee0565b9050600081612e925766038d7ea4c6800091505b81612ea5670de0b6b3a764000086614f47565b612eaf9190614f66565b9050808510612f51576000612ec4828761503d565b610138546040516370a0823160e01b81523060048201529192506000916001600160a01b03909116906370a0823190602401602060405180830381865afa158015612f13573d6000803e3d6000fd5b505050506040513d601f19601f82011682018060405250810190612f379190614ef8565b90506001811115612f4e5787821015612f4e578197505b50505b6000612f5e60018861503d565b6101385460405163852a12e360e01b8152600481018390529192506001600160a01b03169063852a12e3906024016020604051808303816000875af1158015612fab573d6000803e3d6000fd5b505050506040513d601f19601f82011682018060405250810190612fcf9190614ef8565b5050505050505050565b6040805160018082528183019092526000916020808301908036833750506101385482519293506001600160a01b03169183915060009061301c5761301c615112565b6001600160a01b0392831660209182029290920101526101395460405162e1ed9760e51b8152911690631c3db2e09061305b9030908590600401615336565b600060405180830381600087803b15801561307557600080fd5b505af1158015612976573d6000803e3d6000fd5b6040516370a0823160e01b815230600482015260009073e0654c8e6fd4d733349ac7e09f6f23da256bf475906370a0823190602401602060405180830381865afa1580156130db573d6000803e3d6000fd5b505050506040513d601f19601f820116820180604052508101906130ff9190614ef8565b9050610144548110610f7557610f758161013a6142da565b610134546040516370a0823160e01b8152306004820152600091829161271091907321be370d5312f44cb42ce377bc9b8a0cef1a4c83906370a0823190602401602060405180830381865afa158015613174573d6000803e3d6000fd5b505050506040513d601f19601f820116820180604052508101906131989190614ef8565b6131a29190614f47565b6131ac9190614f66565b90506131ba8161013c6142da565b6040516370a0823160e01b8152306004820152738d11ec38a3eb5e956b052f67da8bdc9bef8abf3e9060009082906370a0823190602401602060405180830381865afa15801561320e573d6000803e3d6000fd5b505050506040513d601f19601f820116820180604052508101906132329190614ef8565b905080156132f157612710610135548261324c9190614f47565b6132569190614f66565b93506000612710610136548361326c9190614f47565b6132769190614f66565b90506000612710610137548361328c9190614f47565b6132969190614f66565b90506132a2818361503d565b91506132b86001600160a01b038516338861233e565b610131546132d3906001600160a01b0386811691168461233e565b610133546132ee906001600160a01b0386811691168361233e565b50505b50505090565b61012d546001600160a01b03167321be370d5312f44cb42ce377bc9b8a0cef1a4c83141561332157565b6040516370a0823160e01b81523060048201526000907321be370d5312f44cb42ce377bc9b8a0cef1a4c83906370a0823190602401602060405180830381865afa158015613373573d6000803e3d6000fd5b505050506040513d601f19601f820116820180604052508101906133979190614ef8565b9050610f758161013b6142da565b60008183106133b45781610dd5565b5090919050565b6101385461012d546133da916001600160a01b039182169116836143a1565b6101385460405163140e25ad60e31b8152600481018390526001600160a01b039091169063a0712d68906024016020604051808303816000875af1158015613426573d6000803e3d6000fd5b505050506040513d601f19601f8201168201806040525081019061344a9190614ef8565b506000613455614453565b905061346081613733565b1561346d576129bf613770565b613476816138c8565b156129ed576129ed6000612cf9565b600054610100900460ff166134ac5760405162461bcd60e51b81526004016110c5906151e1565b565b8015806135285750604051636eb1769f60e11b81523060048201526001600160a01b03838116602483015284169063dd62ed3e90604401602060405180830381865afa158015613502573d6000803e3d6000fd5b505050506040513d601f19601f820116820180604052508101906135269190614ef8565b155b6135935760405162461bcd60e51b815260206004820152603660248201527f5361666545524332303a20617070726f76652066726f6d206e6f6e2d7a65726f60448201527520746f206e6f6e2d7a65726f20616c6c6f77616e636560501b60648201526084016110c5565b6040516001600160a01b038316602482015260448101829052610e5c90849063095ea7b360e01b9060640161236a565b60008260000182815481106135da576135da615112565b9060005260206000200154905092915050565b61013854604051633af9e66960e01b815230600482015260009182916001600160a01b0390911690633af9e669906024016020604051808303816000875af115801561363d573d6000803e3d6000fd5b505050506040513d601f19601f820116820180604052508101906136619190614ef8565b610138546040516395dd919360e01b81523060048201529192506000916001600160a01b03909116906395dd919390602401602060405180830381865afa1580156136b0573d6000803e3d6000fd5b505050506040513d601f19601f820116820180604052508101906136d49190614ef8565b9050818411156136e8575060009392505050565b6136f2848361503d565b91508115806136ff575080155b1561370e575060009392505050565b8161372182670de0b6b3a7640000614f47565b61372b9190614f66565b949350505050565b600061013f5461013e541015801561375b575061013f5461013e54613758919061503d565b82105b1561376857506001919050565b506000919050565b61013854604051633af9e66960e01b81523060048201526000916001600160a01b031690633af9e669906024016020604051808303816000875af11580156137bc573d6000803e3d6000fd5b505050506040513d601f19601f820116820180604052508101906137e09190614ef8565b610138546040516395dd919360e01b81523060048201529192506000916001600160a01b03909116906395dd919390602401602060405180830381865afa15801561382f573d6000803e3d6000fd5b505050506040513d601f19601f820116820180604052508101906138539190614ef8565b90506000613861828461503d565b905060006138728261013e54614579565b90506000613880848361503d565b905060005b610141548160ff1610801561389c57506101425482115b1561187f576138aa826145a1565b6138b4908361503d565b9150806138c081615392565b915050613885565b600061013f5461013e546138dc9190614ee0565b82111561376857506001919050565b606061372b848460008561486c565b6060610d0d6001600160a01b03831660145b6060600061391b836002614f47565b613926906002614ee0565b67ffffffffffffffff81111561393e5761393e614bf3565b6040519080825280601f01601f191660200182016040528015613968576020820181803683370190505b509050600360fc1b8160008151811061398357613983615112565b60200101906001600160f81b031916908160001a905350600f60fb1b816001815181106139b2576139b2615112565b60200101906001600160f81b031916908160001a90535060006139d6846002614f47565b6139e1906001614ee0565b90505b6001811115613a59576f181899199a1a9b1b9c1cb0b131b232b360811b85600f1660108110613a1557613a15615112565b1a60f81b828281518110613a2b57613a2b615112565b60200101906001600160f81b031916908160001a90535060049490941c93613a52816153b2565b90506139e4565b508315610dd55760405162461bcd60e51b815260206004820181905260248201527f537472696e67733a20686578206c656e67746820696e73756666696369656e7460448201526064016110c5565b6000818152600183016020526040812054613aef57508154600181810184556000848152602080822090930184905584548482528286019093526040902091909155610d0d565b506000610d0d565b60008181526001830160205260408120548015613be0576000613b1b60018361503d565b8554909150600090613b2f9060019061503d565b9050818114613b94576000866000018281548110613b4f57613b4f615112565b9060005260206000200154905080876000018481548110613b7257613b72615112565b6000918252602080832090910192909255918252600188019052604090208390555b8554869080613ba557613ba56153c9565b600190038181906000526020600020016000905590558560010160008681526020019081526020016000206000905560019350505050610d0d565b6000915050610d0d565b613bf381612c38565b6040516001600160a01b038216907fbc7cd75a20ee27fd9adebab32041f755214dbc6bffa90cc0225b39da2e5c2d3b90600090a250565b60606001600160a01b0383163b613c925760405162461bcd60e51b815260206004820152602660248201527f416464726573733a2064656c65676174652063616c6c20746f206e6f6e2d636f6044820152651b9d1c9858dd60d21b60648201526084016110c5565b600080846001600160a01b031684604051613cad91906153df565b600060405180830381855af49150503d8060008114613ce8576040519150601f19603f3d011682016040523d82523d6000602084013e613ced565b606091505b5091509150613d1582826040518060600160405280602781526020016154d260279139614947565b95945050505050565b61013854604051633af9e66960e01b815230600482015260009182916001600160a01b0390911690633af9e669906024016020604051808303816000875af1158015613d6e573d6000803e3d6000fd5b505050506040513d601f19601f82011682018060405250810190613d929190614ef8565b610138546040516395dd919360e01b81523060048201529192506000916001600160a01b03909116906395dd919390602401602060405180830381865afa158015613de1573d6000803e3d6000fd5b505050506040513d601f19601f82011682018060405250810190613e059190614ef8565b90506000613e13828461503d565b9050600081861115613e23578195505b613e2d868361503d565b9050600061013e5482613e409190614f47565b9050600061013e54670de0b6b3a7640000613e5b919061503d565b90506000613e698284614f66565b9050620186a0811115613e8657613e83620186a08261503d565b90505b613e90818761503d565b9998505050505050505050565b61013854604051633af9e66960e01b8152306004820152600091829182916001600160a01b031690633af9e669906024016020604051808303816000875af1158015613eed573d6000803e3d6000fd5b505050506040513d601f19601f82011682018060405250810190613f119190614ef8565b610138546040516395dd919360e01b81523060048201529192506000916001600160a01b03909116906395dd919390602401602060405180830381865afa158015613f60573d6000803e3d6000fd5b505050506040513d601f19601f82011682018060405250810190613f849190614ef8565b6101395461013854604051638e8f294b60e01b81526001600160a01b039182166004820152929350600092911690638e8f294b90602401606060405180830381865afa158015613fd8573d6000803e3d6000fd5b505050506040513d601f19601f82011682018060405250810190613ffc91906150d6565b5091505080156140265780614019670de0b6b3a764000084614f47565b6140239190614f66565b93505b6000614032858561503d565b9050809550828610614042578295505b86861061404d578695505b610138546040805163182df0f560e01b815290516000926001600160a01b03169163182df0f59160048083019260209291908290030181865afa158015614098573d6000803e3d6000fd5b505050506040513d601f19601f820116820180604052508101906140bc9190614ef8565b9050806140d1670de0b6b3a764000089614f47565b101580156140df5750600a87115b156142cf576140ef600a8861503d565b6101385460405163852a12e360e01b8152600481018390529198506001600160a01b03169063852a12e3906024016020604051808303816000875af115801561413c573d6000803e3d6000fd5b505050506040513d601f19601f820116820180604052508101906141609190614ef8565b506101385461012d54614180916001600160a01b039182169116896143a1565b610138546040516395dd919360e01b81523060048201526001600160a01b03909116906395dd919390602401602060405180830381865afa1580156141c9573d6000803e3d6000fd5b505050506040513d601f19601f820116820180604052508101906141ed9190614ef8565b6101385460405163073a938160e11b8152600481018a90529195506001600160a01b031690630e752702906024016020604051808303816000875af115801561423a573d6000803e3d6000fd5b505050506040513d601f19601f8201168201806040525081019061425e9190614ef8565b50610138546040516395dd919360e01b81523060048201526001600160a01b03909116906395dd919390602401602060405180830381865afa1580156142a8573d6000803e3d6000fd5b505050506040513d601f19601f820116820180604052508101906142cc9190614ef8565b93505b505050505050919050565b81156110d85761432873f491e7b69e4244ad4002bc14e878a34207e38c29838360008154811061430c5761430c615112565b6000918252602090912001546001600160a01b031691906143a1565b73f491e7b69e4244ad4002bc14e878a34207e38c29635c11d795836000843061435342610258614ee0565b6040518663ffffffff1660e01b81526004016143739594939291906153fb565b600060405180830381600087803b15801561438d57600080fd5b505af115801561187f573d6000803e3d6000fd5b604051636eb1769f60e11b81523060048201526001600160a01b038381166024830152600091839186169063dd62ed3e90604401602060405180830381865afa1580156143f2573d6000803e3d6000fd5b505050506040513d601f19601f820116820180604052508101906144169190614ef8565b6144209190614ee0565b6040516001600160a01b03851660248201526044810182905290915061212d90859063095ea7b360e01b9060640161236a565b61013854604051633af9e66960e01b815230600482015260009182916001600160a01b0390911690633af9e669906024016020604051808303816000875af11580156144a3573d6000803e3d6000fd5b505050506040513d601f19601f820116820180604052508101906144c79190614ef8565b610138546040516395dd919360e01b81523060048201529192506000916001600160a01b03909116906395dd919390602401602060405180830381865afa158015614516573d6000803e3d6000fd5b505050506040513d601f19601f8201168201806040525081019061453a9190614ef8565b9050811580614547575080155b156145555760009250505090565b8161456882670de0b6b3a7640000614f47565b6145729190614f66565b9250505090565b600061458d82670de0b6b3a764000061503d565b6145978385614f47565b610dd59190614f66565b6000816145b057506000919050565b61013854604051633af9e66960e01b81523060048201526000916001600160a01b031690633af9e669906024016020604051808303816000875af11580156145fc573d6000803e3d6000fd5b505050506040513d601f19601f820116820180604052508101906146209190614ef8565b610138546040516395dd919360e01b81523060048201529192506000916001600160a01b03909116906395dd919390602401602060405180830381865afa15801561466f573d6000803e3d6000fd5b505050506040513d601f19601f820116820180604052508101906146939190614ef8565b6101395461013854604051638e8f294b60e01b81526001600160a01b039182166004820152929350600092911690638e8f294b90602401606060405180830381865afa1580156146e7573d6000803e3d6000fd5b505050506040513d601f19601f8201168201806040525081019061470b91906150d6565b50915060009050670de0b6b3a76400006147258386614f47565b61472f9190614f66565b905061473b838261503d565b905085811015614749578095505b600a861115614862576101385460405163317afabb60e21b8152600481018890526001600160a01b039091169063c5ebeaec906024016020604051808303816000875af115801561479e573d6000803e3d6000fd5b505050506040513d601f19601f820116820180604052508101906147c29190614ef8565b5060006147cd611d4a565b6101385461012d549192506147ef916001600160a01b039081169116836143a1565b6101385460405163140e25ad60e31b8152600481018390526001600160a01b039091169063a0712d68906024016020604051808303816000875af115801561483b573d6000803e3d6000fd5b505050506040513d601f19601f8201168201806040525081019061485f9190614ef8565b50505b5093949350505050565b6060824710156148cd5760405162461bcd60e51b815260206004820152602660248201527f416464726573733a20696e73756666696369656e742062616c616e636520666f6044820152651c8818d85b1b60d21b60648201526084016110c5565b600080866001600160a01b031685876040516148e991906153df565b60006040518083038185875af1925050503d8060008114614926576040519150601f19603f3d011682016040523d82523d6000602084013e61492b565b606091505b509150915061493c87838387614960565b979650505050505050565b60608315614956575081610dd5565b610dd583836149d2565b606083156149cc5782516149c5576001600160a01b0385163b6149c55760405162461bcd60e51b815260206004820152601d60248201527f416464726573733a2063616c6c20746f206e6f6e2d636f6e747261637400000060448201526064016110c5565b508161372b565b61372b83835b8151156149e25781518083602001fd5b8060405162461bcd60e51b81526004016110c591906152e8565b828054828255906000526020600020908101928215614a51579160200282015b82811115614a5157825182546001600160a01b0319166001600160a01b03909116178255602090920191600190910190614a1c565b50614a5d929150614b0d565b5090565b5080546000825590600052602060002090810190610f759190614b0d565b828054828255906000526020600020908101928215614a51579160200282015b82811115614a515781546001600160a01b0319166001600160a01b03843516178255602090920191600190910190614a9f565b828054828255906000526020600020908101928215614a51579160200282015b82811115614a51578251825591602001919060010190614af2565b5b80821115614a5d5760008155600101614b0e565b600060208284031215614b3457600080fd5b81356001600160e01b031981168114610dd557600080fd5b600060208284031215614b5e57600080fd5b5035919050565b600080600060608486031215614b7a57600080fd5b505081359360208301359350604090920135919050565b6001600160a01b0381168114610f7557600080fd5b60008060408385031215614bb957600080fd5b823591506020830135614bcb81614b91565b809150509250929050565b600060208284031215614be857600080fd5b8135610dd581614b91565b634e487b7160e01b600052604160045260246000fd5b604051601f8201601f1916810167ffffffffffffffff81118282101715614c3257614c32614bf3565b604052919050565b600082601f830112614c4b57600080fd5b8135602067ffffffffffffffff821115614c6757614c67614bf3565b8160051b614c76828201614c09565b9283528481018201928281019087851115614c9057600080fd5b83870192505b8483101561493c578235614ca981614b91565b82529183019190830190614c96565b600080600080600060a08688031215614cd057600080fd5b8535614cdb81614b91565b9450602086013567ffffffffffffffff80821115614cf857600080fd5b614d0489838a01614c3a565b95506040880135915080821115614d1a57600080fd5b614d2689838a01614c3a565b94506060880135915080821115614d3c57600080fd5b50614d4988828901614c3a565b9250506080860135614d5a81614b91565b809150509295509295909350565b60008060408385031215614d7b57600080fd5b8235614d8681614b91565b915060208381013567ffffffffffffffff80821115614da457600080fd5b818601915086601f830112614db857600080fd5b813581811115614dca57614dca614bf3565b614ddc601f8201601f19168501614c09565b91508082528784828501011115614df257600080fd5b80848401858401376000848284010152508093505050509250929050565b600060208284031215614e2257600080fd5b813560ff81168114610dd557600080fd5b60008060408385031215614e4657600080fd5b50508035926020909101359150565b60008060208385031215614e6857600080fd5b823567ffffffffffffffff80821115614e8057600080fd5b818501915085601f830112614e9457600080fd5b813581811115614ea357600080fd5b8660208260051b8501011115614eb857600080fd5b60209290920196919550909350505050565b634e487b7160e01b600052601160045260246000fd5b60008219821115614ef357614ef3614eca565b500190565b600060208284031215614f0a57600080fd5b5051919050565b60008060008060808587031215614f2757600080fd5b505082516020840151604085015160609095015191969095509092509050565b6000816000190483118215151615614f6157614f61614eca565b500290565b600082614f8357634e487b7160e01b600052601260045260246000fd5b500490565b6020808252602c908201527f46756e6374696f6e206d7573742062652063616c6c6564207468726f7567682060408201526b19195b1959d85d1958d85b1b60a21b606082015260800190565b6020808252602c908201527f46756e6374696f6e206d7573742062652063616c6c6564207468726f7567682060408201526b6163746976652070726f787960a01b606082015260800190565b6000600160ff1b82141561503657615036614eca565b5060000390565b60008282101561504f5761504f614eca565b500390565b60006020828403121561506657600080fd5b8151610dd581614b91565b6020808252825482820181905260008481528281209092916040850190845b818110156150b55783546001600160a01b031683526001938401939285019201615090565b50909695505050505050565b805180151581146150d157600080fd5b919050565b6000806000606084860312156150eb57600080fd5b6150f4846150c1565b925060208401519150615109604085016150c1565b90509250925092565b634e487b7160e01b600052603260045260246000fd5b600060c0828403121561513a57600080fd5b60405160c0810181811067ffffffffffffffff8211171561515d5761515d614bf3565b8060405250825181526020830151602082015260408301516040820152606083015160608201526080830151608082015260a083015160a08201528091505092915050565b60008083128015600160ff1b8501841216156151c0576151c0614eca565b6001600160ff1b03840183138116156151db576151db614eca565b50500390565b6020808252602b908201527f496e697469616c697a61626c653a20636f6e7472616374206973206e6f74206960408201526a6e697469616c697a696e6760a81b606082015260800190565b60006020828403121561523e57600080fd5b610dd5826150c1565b60005b8381101561526257818101518382015260200161524a565b8381111561212d5750506000910152565b7f416363657373436f6e74726f6c3a206163636f756e74200000000000000000008152600083516152ab816017850160208801615247565b7001034b99036b4b9b9b4b733903937b6329607d1b60179184019182015283516152dc816028840160208801615247565b01602801949350505050565b6020815260008251806020840152615307816040850160208701615247565b601f01601f19169190910160400192915050565b600060001982141561532f5761532f614eca565b5060010190565b6001600160a01b038381168252604060208084018290528451918401829052600092858201929091906060860190855b81811015615384578551851683529483019491830191600101615366565b509098975050505050505050565b600060ff821660ff8114156153a9576153a9614eca565b60010192915050565b6000816153c1576153c1614eca565b506000190190565b634e487b7160e01b600052603160045260246000fd5b600082516153f1818460208701615247565b9190910192915050565b600060a082018783526020878185015260a0604085015281875480845260c0860191508860005282600020935060005b818110156154505784546001600160a01b03168352600194850194928401920161542b565b50506001600160a01b0396909616606085015250505060800152939250505056fe8b5b16d04624687fcf0d0228f19993c9157c1ed07b41d8d430fd9100eb099fe871a9859d7dd21b24504a6f306077ffc2d510b4d4b61128e931fe937441ad1836360894a13ba1a3210667c828492db98dca3e2076cc3735a920a3ca505d382bbc416464726573733a206c6f772d6c6576656c2064656c65676174652063616c6c206661696c6564b17d0a42cc710456bf9c3efb785dcd0cb93a0ac358113307b5c64b285b516b5ca2646970667358221220d60e3e01d6faf11242140170c5c7c55e6c729ea407509713699ed5335269d71b64736f6c634300080b0033",
    "linkReferences": {}
  },
  "methodIdentifiers": {
    "ADMIN()": "2a0acc6a",
    "DAI()": "e0bab4c4",
    "DEFAULT_ADMIN_ROLE()": "a217fddf",
    "GUARDIAN()": "724c184c",
    "KEEPER()": "862a179e",
    "LTV_SAFETY_ZONE()": "037f4004",
    "MANTISSA()": "2703984c",
    "MAX_FEE()": "bc063e1a",
    "ONE_YEAR()": "16d3bfbb",
    "PERCENT_DIVISOR()": "4870dd9a",
    "SCREAM()": "80b793dd",
    "STRATEGIST()": "9cfdede3",
    "STRATEGIST_MAX_FEE()": "ecf173ff",
    "UNI_ROUTER()": "ee0ab465",
    "UPGRADE_TIMELOCK()": "25ed32ca",
    "WFTM()": "21dbe876",
    "allowedLTVDrift()": "bc8ebf6b",
    "balanceOf()": "722713f7",
    "balanceOfPool()": "11588086",
    "balanceOfWant()": "c1a3d44c",
    "borrowDepth()": "97684317",
    "cWant()": "d1125fd0",
    "calculateLTV()": "32abda9c",
    "callFee()": "90321e1a",
    "clearUpgradeCooldown()": "88879985",
    "comptroller()": "5fe3b567",
    "emergencyExit()": "5641ec03",
    "getCurrentPosition()": "418f35cc",
    "getRoleAdmin(bytes32)": "248a9ca3",
    "getRoleMember(bytes32,uint256)": "9010d07c",
    "getRoleMemberCount(bytes32)": "ca15c873",
    "grantRole(bytes32,address)": "2f2ff15d",
    "harvest()": "4641257d",
    "hasRole(bytes32,address)": "91d14854",
    "initialize(address,address[],address[],address[],address)": "46d5b963",
    "initiateUpgradeCooldown()": "82b0b175",
    "lastHarvestTimestamp()": "2257a738",
    "manualDeleverage(uint256)": "3042087c",
    "manualReleaseWant(uint256)": "396794cd",
    "markets(uint256)": "b1283e77",
    "maxBorrowDepth()": "3a1fa306",
    "minScreamToSell()": "39a0e81a",
    "minWantToLeverage()": "74872cf2",
    "proxiableUUID()": "52d1902d",
    "renounceRole(bytes32,address)": "36568abe",
    "revokeRole(bytes32,address)": "d547741f",
    "screamToWftmRoute(uint256)": "d43cb96d",
    "setAllowedLtvDrift(uint256)": "d09e1263",
    "setBorrowDepth(uint8)": "65ee3395",
    "setEmergencyExit()": "fcf2d0ad",
    "setMinScreamToSell(uint256)": "06f05bbe",
    "setMinWantToLeverage(uint256)": "0718d0c3",
    "setTargetLtv(uint256)": "908ee91c",
    "setWftmToWantRoute(address[])": "c48896d0",
    "strategistFee()": "526e1080",
    "strategistRemitter()": "8888f9f6",
    "supportsInterface(bytes4)": "01ffc9a7",
    "targetLTV()": "36801825",
    "totalFee()": "1df4ccfc",
    "treasury()": "61d027b3",
    "treasuryFee()": "cc32d176",
    "updateBalance()": "a9559dd7",
    "updateFees(uint256,uint256,uint256)": "22429085",
    "updateStrategistRemitter(address)": "e46257d2",
    "updateTotalFee(uint256)": "d32b9604",
    "updateTreasury(address)": "7f51bb1f",
    "upgradeProposalTime()": "651eebfe",
    "upgradeTo(address)": "3659cfe6",
    "upgradeToAndCall(address,bytes)": "4f1ef286",
    "vault()": "fbfa77cf",
    "want()": "1f1fcd51",
    "wftmToDaiRoute(uint256)": "b60afbcf",
    "wftmToWantRoute(uint256)": "886fe945",
    "withdraw(uint256)": "2e1a7d4d"
  },
  "id": 45
}