{
  "abi": [
    {
      "anonymous": false,
      "inputs": [
        {
          "indexed": true,
          "internalType": "address",
          "name": "previousOwner",
          "type": "address"
        },
        {
          "indexed": true,
          "internalType": "address",
          "name": "newOwner",
          "type": "address"
        }
      ],
      "name": "OwnershipTransferred",
      "type": "event"
    },
    {
      "inputs": [],
      "name": "accountant",
      "outputs": [
        {
          "internalType": "address",
          "name": "",
          "type": "address"
        }
      ],
      "stateMutability": "view",
      "type": "function"
    },
    {
      "inputs": [
        {
          "internalType": "uint256",
          "name": "index",
          "type": "uint256"
        }
      ],
      "name": "markReviewed",
      "outputs": [
        {
          "internalType": "bool",
          "name": "",
          "type": "bool"
        }
      ],
      "stateMutability": "nonpayable",
      "type": "function"
    },
    {
      "inputs": [],
      "name": "owner",
      "outputs": [
        {
          "internalType": "address",
          "name": "",
          "type": "address"
        }
      ],
      "stateMutability": "view",
      "type": "function"
    },
    {
      "inputs": [],
      "name": "renounceOwnership",
      "outputs": [],
      "stateMutability": "nonpayable",
      "type": "function"
    },
    {
      "inputs": [
        {
          "internalType": "address",
          "name": "_addr",
          "type": "address"
        }
      ],
      "name": "setAccountant",
      "outputs": [
        {
          "internalType": "bool",
          "name": "",
          "type": "bool"
        }
      ],
      "stateMutability": "nonpayable",
      "type": "function"
    },
    {
      "inputs": [
        {
          "internalType": "address",
          "name": "newOwner",
          "type": "address"
        }
      ],
      "name": "transferOwnership",
      "outputs": [],
      "stateMutability": "nonpayable",
      "type": "function"
    },
    {
      "inputs": [
        {
          "internalType": "uint256",
          "name": "index",
          "type": "uint256"
        }
      ],
      "name": "viewWithdrawal",
      "outputs": [
        {
          "internalType": "uint256",
          "name": "",
          "type": "uint256"
        },
        {
          "internalType": "address",
          "name": "",
          "type": "address"
        },
        {
          "internalType": "uint256",
          "name": "",
          "type": "uint256"
        },
        {
          "internalType": "bool",
          "name": "",
          "type": "bool"
        }
      ],
      "stateMutability": "view",
      "type": "function"
    },
    {
      "inputs": [
        {
          "internalType": "address payable",
          "name": "_to",
          "type": "address"
        },
        {
          "internalType": "uint256",
          "name": "_amount",
          "type": "uint256"
        }
      ],
      "name": "withdrawFTM",
      "outputs": [],
      "stateMutability": "nonpayable",
      "type": "function"
    },
    {
      "inputs": [
        {
          "internalType": "address",
          "name": "_token",
          "type": "address"
        },
        {
          "internalType": "address",
          "name": "_to",
          "type": "address"
        },
        {
          "internalType": "uint256",
          "name": "_amount",
          "type": "uint256"
        }
      ],
      "name": "withdrawTokens",
      "outputs": [],
      "stateMutability": "nonpayable",
      "type": "function"
    },
    {
      "inputs": [
        {
          "internalType": "uint256",
          "name": "",
          "type": "uint256"
        }
      ],
      "name": "withdrawals",
      "outputs": [
        {
          "internalType": "uint256",
          "name": "amount",
          "type": "uint256"
        },
        {
          "internalType": "address",
          "name": "token",
          "type": "address"
        },
        {
          "internalType": "uint256",
          "name": "time",
          "type": "uint256"
        },
        {
          "internalType": "bool",
          "name": "reviewed",
          "type": "bool"
        }
      ],
      "stateMutability": "view",
      "type": "function"
    },
    {
      "stateMutability": "payable",
      "type": "receive"
    }
  ],
  "bytecode": {
    "object": "0x6080604052600060025534801561001557600080fd5b5061001f33610024565b610074565b600080546001600160a01b038381166001600160a01b0319831681178455604051919092169283917f8be0079c531659141344cd1fd0a4f28419497f9722a3daafe3b4186f6b6457e09190a35050565b610a67806100836000396000f3fe6080604052600436106100955760003560e01c8063715018a611610059578063715018a61461021c5780638da5cb5b14610231578063cdbf86561461024f578063d4068acd1461026f578063f2fde38b1461028f57600080fd5b806344edcb48146100a157806348ea7127146101425780634fb3ccc5146101725780635cc07076146101aa5780635e35359e146101fa57600080fd5b3661009c57005b600080fd5b3480156100ad57600080fd5b506101136100bc3660046108a8565b6000908152600360208181526040928390208351608081018552815480825260018301546001600160a01b03169382018490526002830154958201869052919093015460ff16151560609093018390529390929190565b604080519485526001600160a01b03909316602085015291830152151560608201526080015b60405180910390f35b34801561014e57600080fd5b5061016261015d3660046108d6565b6102af565b6040519015158152602001610139565b34801561017e57600080fd5b50600154610192906001600160a01b031681565b6040516001600160a01b039091168152602001610139565b3480156101b657600080fd5b506101136101c53660046108a8565b6003602081905260009182526040909120805460018201546002830154929093015490926001600160a01b0316919060ff1684565b34801561020657600080fd5b5061021a6102153660046108fa565b6102dc565b005b34801561022857600080fd5b5061021a610386565b34801561023d57600080fd5b506000546001600160a01b0316610192565b34801561025b57600080fd5b5061016261026a3660046108a8565b61039a565b34801561027b57600080fd5b5061021a61028a36600461093b565b610411565b34801561029b57600080fd5b5061021a6102aa3660046108d6565b6104d4565b60006102b961054d565b50600180546001600160a01b0383166001600160a01b0319909116178155919050565b6102e461054d565b604080516080810182528281526001600160a01b038581166020808401918252428486019081526000606086018181526002805483526003948590529782209651875593516001870180546001600160a01b0319169190961617909455518486015590519201805460ff1916921515929092179091558154919061036783610967565b9091555061038190506001600160a01b03841683836105a7565b505050565b61038e61054d565b61039860006105f9565b565b6001546000906001600160a01b031633146103ed5760405162461bcd60e51b815260206004820152600e60248201526d1b9bdd08185d5d1a1bdc9a5e995960921b60448201526064015b60405180910390fd5b50600090815260036020819052604090912001805460ff1916600190811790915590565b61041961054d565b604080516080810182528281526000602080830182815242848601908152606085018481526002805486526003948590529685209551865591516001860180546001600160a01b0319166001600160a01b039092169190911790555184860155519201805460ff1916921515929092179091558154919061049983610967565b90915550506040516001600160a01b0383169082156108fc029083906000818181858888f19350505050158015610381573d6000803e3d6000fd5b6104dc61054d565b6001600160a01b0381166105415760405162461bcd60e51b815260206004820152602660248201527f4f776e61626c653a206e6577206f776e657220697320746865207a65726f206160448201526564647265737360d01b60648201526084016103e4565b61054a816105f9565b50565b6000546001600160a01b031633146103985760405162461bcd60e51b815260206004820181905260248201527f4f776e61626c653a2063616c6c6572206973206e6f7420746865206f776e657260448201526064016103e4565b604080516001600160a01b038416602482015260448082018490528251808303909101815260649091019091526020810180516001600160e01b031663a9059cbb60e01b179052610381908490610649565b600080546001600160a01b038381166001600160a01b0319831681178455604051919092169283917f8be0079c531659141344cd1fd0a4f28419497f9722a3daafe3b4186f6b6457e09190a35050565b600061069e826040518060400160405280602081526020017f5361666545524332303a206c6f772d6c6576656c2063616c6c206661696c6564815250856001600160a01b031661071b9092919063ffffffff16565b80519091501561038157808060200190518101906106bc9190610990565b6103815760405162461bcd60e51b815260206004820152602a60248201527f5361666545524332303a204552433230206f7065726174696f6e20646964206e6044820152691bdd081cdd58d8d9595960b21b60648201526084016103e4565b606061072a8484600085610732565b949350505050565b6060824710156107935760405162461bcd60e51b815260206004820152602660248201527f416464726573733a20696e73756666696369656e742062616c616e636520666f6044820152651c8818d85b1b60d21b60648201526084016103e4565b600080866001600160a01b031685876040516107af91906109e2565b60006040518083038185875af1925050503d80600081146107ec576040519150601f19603f3d011682016040523d82523d6000602084013e6107f1565b606091505b50915091506108028783838761080d565b979650505050505050565b60608315610879578251610872576001600160a01b0385163b6108725760405162461bcd60e51b815260206004820152601d60248201527f416464726573733a2063616c6c20746f206e6f6e2d636f6e747261637400000060448201526064016103e4565b508161072a565b61072a838381511561088e5781518083602001fd5b8060405162461bcd60e51b81526004016103e491906109fe565b6000602082840312156108ba57600080fd5b5035919050565b6001600160a01b038116811461054a57600080fd5b6000602082840312156108e857600080fd5b81356108f3816108c1565b9392505050565b60008060006060848603121561090f57600080fd5b833561091a816108c1565b9250602084013561092a816108c1565b929592945050506040919091013590565b6000806040838503121561094e57600080fd5b8235610959816108c1565b946020939093013593505050565b600060001982141561098957634e487b7160e01b600052601160045260246000fd5b5060010190565b6000602082840312156109a257600080fd5b815180151581146108f357600080fd5b60005b838110156109cd5781810151838201526020016109b5565b838111156109dc576000848401525b50505050565b600082516109f48184602087016109b2565b9190910192915050565b6020815260008251806020840152610a1d8160408501602087016109b2565b601f01601f1916919091016040019291505056fea2646970667358221220240aa49fecf23ab04fa05f234c184d4af05db491e51b05b31d2e4581311233ee64736f6c634300080b0033",
    "linkReferences": {}
  },
  "methodIdentifiers": {
    "accountant()": "4fb3ccc5",
    "markReviewed(uint256)": "cdbf8656",
    "owner()": "8da5cb5b",
    "renounceOwnership()": "715018a6",
    "setAccountant(address)": "48ea7127",
    "transferOwnership(address)": "f2fde38b",
    "viewWithdrawal(uint256)": "44edcb48",
    "withdrawFTM(address,uint256)": "d4068acd",
    "withdrawTokens(address,address,uint256)": "5e35359e",
    "withdrawals(uint256)": "5cc07076"
  },
  "id": 59
}